:10000000FEEF11F0F76A140FF66E000EF7220900EA
:10001000F5501200280C0106F76A280FF66E000E44
:10002000F7220900F55012000E1111150E0E0E04E4
:10003000140A000E0B0E1A0E000814080304040321
:1000400004140414040E0E04000A15000A1500001E
:100050000000040E1F0A0E0000000E1517110E00FE
:100060000808040200080808000000000000000062
:10007000F76A800FF66E000EF7220900F5501200A5
:10008000005EBCE2613FDD83C29C7E20A3FD1F4178
:100090009DC3217FFCA2401E5F01E3BD3E6082DC68
:1000A000237D9FC1421CFEA0E1BF5D0380DE3C6258
:1000B000BEE0025CDF81633D7C22C09E1D43A1FF48
:1000C0004618FAA427799BC584DA3866E5BB590738
:1000D000DB856739BAE406581947A5FB7826C49A28
:1000E000653BD987045AB8E6A7F91B45C6987A2418
:1000F000F8A6441A99C7257B3A6486D85B05E7B908
:100100008CD2306EEDB3510F4E10F2AC2F7193CDF7
:10011000114FADF3702ECC92D38D6F31B2EC0E50E7
:10012000AFF1134DCE90722C6D33D18F0C52B0EED7
:10013000326C8ED0530DEFB1F0AE4C1291CF2D73C7
:10014000CA947628ABF517490856B4EA6937D58BB7
:100150005709EBB536688AD495CB2977F4AA4816A7
:10016000E9B7550B88D6346A2B7597C94A14F6A897
:10017000742AC896154BA9F7B6E80A54D7896B3587
:100180003C006F6B00003E000C000C437A656B6115
:100190006A2E2E2E00000C437A656B616A2E2E2E7D
:1001A00000000C005574727A796D756A20257520EF
:1001B00000000C00476F647A696E6120257520206D
:1001C00000000C004D696E757461202575202000BB
:1001D0000C0053656B756E642025752020000C4F54
:1001E00070757363206D656E75000C000C54656D41
:1001F000706572617475726100000C000C576C2E92
:100200006F73776965746C656E6961000C55737402
:100210006177696F6E6F2025753A257500000C00B7
:100220000C57796C2E6F73776965746C656E6961B4
:1002300000000C5573746177696F6E6F2025753AF5
:10024000257500000C000C50727A656B617A6E693E
:100250006B2031000C55727563686F6D69656E694E
:10026000650A636F20257520682F257520730000AF
:100270000C000C50727A656B617A6E696B203200EB
:100280000C55727563686F6D69656E69650A636F99
:1002900020257520682F2575207300000C000C5A4E
:1002A0006567617200000C5573746177696F6E6FDA
:1002B0002025753A257500000C000C437A756A6E8E
:1002C000696B69000C000C5265736574207573745A
:1002D000617769656E000C000C0076302E390A4E8D
:1002E0006F7765456E65726769652E6F726700008E
:1002F0000C57796B7279746F0A257520637A756A69
:100300006E696B69000020002100200020002000A1
:10031000EA6A610EE96EEF500EE00F0E016E006AA0
:10032000002EFED7012EFBD78F0E006E002EFED7BB
:100330000000EF2EF2D712005CB002D0899601D0F7
:10034000898692965CB202D0899801D08988929869
:100350005CB402D0899A01D0898A929A5CB602D0A4
:100360008D9001D08D809690000092948984070E24
:10037000006E002EFED700D09294899412005D6A20
:1003800092948984000092865D9080B65D80928808
:100390005D9280B85D82928A5D9480BA5D84968019
:1003A0005D9684B05D86929489945DC001F01200E0
:1003B000929289820000E3DF01C05CF0E0DF01C0BF
:1003C0005BF05C38006EF00E001600505B10016EA2
:1003D000EDEF01F092908990EBD701C05BF001BE88
:1003E000FBD7595203E09290898002D09290899075
:1003F0000000929289920000929489945A385B6E20
:100400000F0E5B165BC05CF097DF5A500F0B5B6EF4
:100410005C6E92DF120092908990929289929294EF
:1004200089940F0E616F74DF3E6A3E50020808E344
:10043000030E5C6E81DF050E616F6ADF3E2AF5D721
:10044000020E5C6E79DF3E6A3E50030809E3036AE0
:100450003E50D8DD3F6E596A5A6EBCDF3E2AF4D753
:100460001CEF12F0596A400E5A6EB4DF3E6A3E50DD
:100470003F080EE3036A3E50CFDD3F6E010E596E1A
:100480003FC05AF0A7DF020E616F42DF3E2AEFD76E
:100490001EEF12F0562C01D003D0400E576E01D043
:1004A000576A010E555C572657508009586E596A95
:1004B0005A6E90DF120054500C0A05E0060A0BE059
:1004C000020A0FE013D0596A010E5A6E83DF020E42
:1004D000616F1EDF10D0010E556E020E566EDADF10
:1004E0000AD0596A100E5A6E75DF05D0010E596E8A
:1004F00054C05AF06FDF12000900F5520CE0F6CF3D
:1005000047F0F7CF48F0F5CF54F0D5DF47C0F6FFFE
:1005100048C0F7FFF1D71200010E665F0CE3EA6AEC
:10052000660EE96EEF5007E0020E006E002EFED759
:1005300000D0EF2EF9D7120093968A96030E626FC1
:10054000C40E666FE9DF622FFBD79386520E666F8B
:10055000E3DF9386616B81B6612B020E626FD40E6E
:10056000666FDADF622FFBD761C001F0120093964D
:100570008A96652D06D0370E006E002EFED700D06D
:100580009386910E666FC8DF93861200636B63518A
:10059000070815E362C064F06351016E04E0D8906F
:1005A0006433012EFCD7010E641764C065F0DFDFF1
:1005B0003B0E006E002EFED700D0632BE8D77D0ED9
:1005C000666FAADF120093968A96370E006E002E91
:1005D000FED700D09386370E006E002EFED700D0D7
:1005E0009386000E81B6010E016E12002750491845
:1005F000036A3EDD276E27C001F077EF03F0010E9E
:10060000406E416A426E436A446A466A276A94DFD2
:10061000479001B0478047B002D00DA004D00C6ACB
:10062000000E016E78D0F00E626FB0DF436ACBDF50
:10063000012C02D0020E436EFA0E666F6DDFC3DF2F
:10064000012C01D043804350030802E155D051D022
:10065000435204E0D8904330456E1DD00C50405CAE
:100660000FE2036A4150040FE96E000E0320EA6EA8
:10067000EF50421402E1000E01D0010E456E07D08A
:100680000C50405C02E0000E01D0010E456E455258
:10069000D8B440C044F0452C0BD0036A4150040F3D
:1006A000E96E000E0320EA6EEF504210EF6E0BD0A1
:1006B000036A4150040FE96E000E0320EA6E4250B7
:1006C000FF0AEF14EF6E45C065F051DF402AD89065
:1006D000423642520EE1036A4150040FE96E000EA9
:1006E0000320EA6EEFCF48F048C049F07FD7412A97
:1006F000422A415007089AE24050400802E30C6A3F
:1007000008D044C00CF00D900C5201E10D80010E98
:10071000466E46C001F012000C6A0D9070DF015069
:1007200097EF03F03F6A08DF015230E1F5D701523D
:100730002DE0266A262A3F2A3E6A3E50070823E318
:100740002650080DF350416A406E036A3E50402423
:10075000016E4150032201500E0F016E000E032264
:1007600003C041F0036A3E50040FE96E000E0320FF
:10077000EA6EEFCF42F041C0EAFF01C0E9FF42C09C
:10078000EFFF3E2ADAD73BDF0152D4E13FC001F050
:1007900034EF12F00900F6CF43F0F7CF44F0F5CF75
:1007A00054F089DE43C0F6FF44C0F7FF422EF2D773
:1007B00012004550016A445C03E244C000F00CD0D2
:1007C000006A080E466E443600364550005CD8B0CC
:1007D000006E0136462EF7D71200015042C044F099
:1007E000640E456EE6DF00C042F00150300E07E1B6
:1007F00043A20CD043B60AD043B8200E03D0439690
:1008000043984380012601C054F055DE42C044F0B5
:100810000A0E456ECEDF00C042F00150300E06E1F8
:1008200043B608D043A006D043B8200E012601C02D
:1008300054F041DE300E422642C054F03CDE12003D
:10084000080E016E110E006E002EFED78A92939252
:10085000110E006E002EFED743368A90D8B09380DA
:10086000D8A09390938281A2FED7012EEBD7110ED0
:10087000006E002EFED78A92939200009380110E94
:10088000006E002EFED7110E006E002EFED7938252
:1008900081A2FED7016A110E006E002EFED781B034
:1008A00001808A9293928A9093901200080E416E72
:1008B00000C042F09380110E006E002EFED793828E
:1008C00081A2FED781B0D88081A0D8900136110EC8
:1008D000006E002EFED793928A92412EEBD7938022
:1008E000110E006E002EFED78A904250D8A493902D
:1008F0000000938281A2FED7110E006E002EFED75B
:100900008A929392110E006E002EFED78A909390D9
:10091000BDEF04F09380110E006E002EFED793827F
:10092000110E006E002EFED781A2FED78A90939002
:10093000110E006E002EFED78A929392D00E436E57
:100940007FDF3EC043F07CDF9380110E006E002EEF
:10095000FED79382110E006E002EFED781A2FED725
:100960008A909390110E006E002EFED78A92939279
:10097000D10E436E65DF006A99D701C03FF09390B6
:100980000000938281A2FED7110E006E002EFED7CA
:1009900000D000009380110E006E002EFED73FC0E5
:1009A00001F012003F38006E0F0E001600500A0DC5
:1009B000F3CF40F03F500F0B4024016E12003E6A0F
:1009C000A9DF01C03EF001C03FF0ECDF01C02CF018
:1009D000010E3E6E9FDF01C03EF001C03FF0E2DF3E
:1009E00001C02DF0020E3E6E95DF01C03EF001C049
:1009F0003FF0D8DF01C02EF05AEF12F09DDD01521A
:100A000003E0000E016E21D0550E626FBFDD606BFA
:100A10006051070818E32650080DF350626B616FB0
:100A2000036A60516125016E6251032201500E0F6D
:100A3000E96E000E0320EA6EEFCF61F061C062F054
:100A4000A5DD602BE5D7010E016E27EF07F0636B84
:100A5000626B6251070813E3B6DD01520BE0010E31
:100A6000006E6251016E04E0D8900036012EFCD772
:100A700000506313960E666F4FDD622BEAD763C09A
:100A800001F03DEF07F08E0E006E65C001F064C00E
:100A900002F0036A015209E102C001F0026A080E85
:100AA000005E015202E1006A08D0D89001BE04D075
:100AB000023601360006F9D7019E12006051D8B403
:100AC00071D0006E6451D8B46DD0002604E3810E5D
:100AD000002668E204D07F0E005E64E363E061C03C
:100AE00068F06551681B618F658F63516703F4CFB0
:100AF0006AF062516603F4CF03F0F3CF69F0670345
:100B0000F3506A27F4506923000E032263516603F1
:100B1000F3506A27F4506923000E026A032202226E
:100B200061516703F3506927F4500322000E02223B
:100B300061516603F3500326F4500222000E016A4D
:100B4000012263516503F3506927F4500322000E1C
:100B50000222012262516503F3500326F45002225F
:100B6000000E012261516503F3500226F450012268
:100B7000002A01BE05D06937033602360136000669
:100B8000000E69AF0AD0032A02220122015005E1BA
:100B9000025003E1035001E1002A68BF018E68AFF3
:100BA000019E04D0006A016A026A036A1200800E84
:100BB000D8B2691B6E6B6F6B65C06DF069516D1BB0
:100BC0006451D8B4DCD06C6F006E6851D8B4E0D0FA
:100BD0006C5FD8B481D03DE369C072F0728F6AC097
:100BE00071F06BC070F06F6BD890723371337033EB
:100BF0006F336C2FF8D76DAF03D06E81DDD06E915F
:100C00006C916E89EA6A670EE96EE9D06E996DBFE4
:100C10000AD06CA113D07233713370336F33002A52
:100C2000D8B4C5D00BD072BF0CD0D8906F37703706
:100C3000713772370006D8B4BAD0F5D76E8D6BD045
:100C40006E9D65C06DF065AF02D0728FA9D0729FA6
:100C5000A7D068C06CF068C000F064516C5F65C0DC
:100C600072F0728F66C071F067C070F06F6BD890D1
:100C70007233713370336F336C2FF8D76DAF03D08D
:100C80006E839AD06E936C916E8BEA6A6B0EE96EEE
:100C9000A6D06E9B6DBF0AD06CA113D07233713396
:100CA00070336F33002AD8B482D00BD072BF0CD00F
:100CB000D8906F377037713772370006D8B477D055
:100CC000F5D76E8F28D06E9F69C06DF069AF02D0E6
:100CD000728F66D0729F64D069C072F0728F6AC0E2
:100CE00071F06BC070F06DAF04D0729F6E8564D0F0
:100CF0006E956F6B6C91EA6A670EE96E70D06DBF8E
:100D00001CD065C06DF06CA106D0723371337033A6
:100D10006F33002A4CE06FAF0BD0702B09E1712BC1
:100D200007E1722B05E1723371337033002A3FE023
:100D30006EBD86D76EBFC7D71CD0800E721B72AF38
:100D400004D03AD069C06DF00AD065C06DF072531E
:100D500006E1715304E1705302E1006A21D072BFD1
:100D600008D0D8906F37703771377237002EF7D7A9
:100D70001ED06DAF02D0728F13D0729F11D068C099
:100D800000F069C072F06AC071F06BC070F008D0FA
:100D900064C000F065C072F066C071F067C070F0AA
:100DA00072C001F071C002F070C003F034D0006A6C
:100DB000016A026A036A2FD06F6B701F711F721F66
:100DC0006F1F6F2B05E1702B03E1712B01E1722B7B
:100DD0006EB115D76EB356D76EB58AD7B3D7EF506D
:100DE000702705E3712B03E1722BD8B46C81ED52AF
:100DF000EF50712703E3722BD8B46C81ED52EF50A2
:100E0000EFBE01D0800A7227D8B06C816EB9FED6D1
:100E10006EBB3FD774D7120049C026F09CEC02F09D
:100E20000152D8A417D1CC0E626FC6EC02F0440E6A
:100E3000626FC6EC02F09386030E606FFA0E616F6C
:100E400088EC01F0602FFAD79CEC02F0D7D5015264
:100E5000D8B4F9D0BE0E626FC6EC02F04A6A4A50AE
:100E6000010813E3036A4A504C0F016E000E03227F
:100E700001C060F003C061F0EAD561C0EAFF60C064
:100E8000E9FF01C0EFFF4A2AEAD74DC056F04CC037
:100E900055F056AE0FD02D0E5B6E55C060F0601F42
:100EA00056C061F0611F010E6025556E000E612174
:100EB000566E02D02B0E5B6E5A6A596A55500F0B54
:100EC0004B6E5630586E5530576E58325732583236
:100ED0005732583257320F0E58164B3C05D0010E80
:100EE0005726000E58220AD04A6A4B504A5C06E246
:100EF000950E5926010E5A224A2AF7D75B502B0825
:100F00004BE15AC065F059C064F0BDDD170E636F48
:100F1000B70E626F510E616F710E606F03C067F0A4
:100F200002C066F001C065F000C064F0C7DD03C018
:100F300063F002C062F001C061F000C060F058C010
:100F400065F057C064F09FDDD89203C067F002C01F
:100F500066F001C065F000C064F063C06BF062C071
:100F60006AF061C069F060C068F021DED892676BFA
:100F7000666B656B646B03C06BF002C06AF001C006
:100F800069F000C068F013DE03C05FF002C05EF0DD
:100F900001C05DF000C05CF05B502D084BE15AC011
:100FA00065F059C064F06FDD170E636FB70E626FA6
:100FB000510E616F710E606F03C067F002C066F082
:100FC00001C065F000C064F079DD03C063F002C0C9
:100FD00062F001C061F000C060F058C065F057C019
:100FE00064F051DDD89203C067F002C066F001C022
:100FF00065F000C064F063C06BF062C06AF061C06D
:1010000069F060C068F0D3DDD882676B666B656B92
:10101000646B03C06BF002C06AF001C069F000C0ED
:1010200068F0C5DD03C05FF002C05EF001C05DF096
:1010300000C05CF05CC000F05DC001F05EC002F07A
:101040005FC003F007D0890E006E0A0E016EE00E3D
:10105000026E036A12003FC046F04350461A46AE85
:1010600005D0D894D8903FBED8802FD03FC046F04E
:1010700042C047F03E50475E06E046AE26D0D8500C
:10108000010AD86E22D043C047F03F50475E06E0C9
:1010900046AE1BD0D850010AD86E17D044C047F0D6
:1010A0004050475E06E046AE10D0D850010AD86ED8
:1010B0000CD045C047F04150475E06E046AE05D033
:1010C000D850010AD86E01D0D8901200968484A41A
:1010D0000CD0020E476E960E616F88EC01F0472E21
:1010E000FAD7020E016E21D020D0948082B00CD0AD
:1010F000020E476E960E616F88EC01F0472EFAD70C
:10110000010E016E12D011D0948282B20CD0020E68
:10111000476E960E616F88EC01F0472EFAD7000EED
:10112000016E03D002D0030E016E120093988A88DC
:101130000A0E616F88EC01F093988A98050E616F32
:1011400088EC01F01200010E556E020E566E4AEC4C
:1011500002F0800EF66E010EF76E7CEC02F0080EC7
:10116000556E020E566E4AEC02F0820EF66E010EBD
:10117000F76E7CEC02F0100E556E020E566E4AECC5
:1011800002F0860EF66E010EF76E7CEC02F0120095
:101190003E80F2CF40F0F29EA96AA69CA69EA68051
:1011A000A85040BEF28E3F6E3F3C02D0190E3F6EFB
:1011B000A20EF66E010EF76E7CEC02F0C4DF040E98
:1011C000406EC80E616F88EC01F0402EFAD73EA049
:1011D00048D0640E616F88EC01F0020E556E010E6E
:1011E000566E4AEC02F0A40EF66E010EF76E090E72
:1011F000426ECAEC03F03FC042F01B0E436EEDECB2
:1012000003F0200E546E5BEC02F0010E596E020EDC
:101210005A6EEAEC01F05ADF0150010A05E0010ABA
:1012200006E0020A07E01CD0010E3F5E19D0010E55
:101230003F2616D0F250006EF29EA96A3FC0A8FF6A
:10124000A69CA69EA6840F01550EA76EAA0EA76E99
:10125000A682A6B2FED7A6940050F2123E900001DC
:10126000B6D75CEF0DF04180B20EF66E010EF76E50
:101270007CEC02F068DF040E426EC80E616F88ECF1
:1012800001F0422EFAD741A039D0640E616F88EC8C
:1012900001F0020E556E010E566E4AEC02F0B40ECD
:1012A000F66E010EF76E080E426ECAEC03F040C0F7
:1012B00042F01B0E436EEDEC03F0200E546E5BEC1F
:1012C00002F0200E546E5BEC02F000DF0150010AC8
:1012D00005E0010A0AE0020A0FE00FD0010E405EAD
:1012E000403C02D0180E406E08D0010E40264050FF
:1012F000180801E2406A01D04190C5D740C001F012
:1013000012004180C20EF66E010EF76E7CEC02F008
:101310001ADF040E426EC80E616F88EC01F0422E97
:10132000FAD741A039D0640E616F88EC01F0020E4B
:10133000556E010E566E4AEC02F0C40EF66E010EAA
:10134000F76E070E426ECAEC03F040C042F01B0E6F
:10135000436EEDEC03F0200E546E5BEC02F0200EB9
:10136000546E5BEC02F0B2DE0150010A05E0010AA6
:101370000AE0020A0FE00FD0010E405E403C02D0AE
:101380003B0E406E08D0010E402640503B0801E263
:10139000406A01D04190C5D740C001F012004180A1
:1013A000D00EF66E010EF76E7CEC02F0CCDE040E71
:1013B000426EC80E616F88EC01F0422EFAD741A050
:1013C00039D0640E616F88EC01F0020E556E010E8B
:1013D000566E4AEC02F0D20EF66E010EF76E070E54
:1013E000426ECAEC03F040C042F01B0E436EEDECBF
:1013F00003F0200E546E5BEC02F0200E546E5BEC9A
:1014000002F064DE0150010A05E0010A0AE0020A66
:101410000FE00FD0010E405E403C02D03B0E406E0C
:1014200008D0010E402640503B0801E2406A01D03E
:101430004190C5D740C001F012003EC044F00A0EF2
:10144000456ED9EC03F00150100DF3CF3FF03EC0D4
:1014500044F00A0E456ED9EC03F000503F24016EB3
:1014600012009380110E006E002EFED79382110E93
:10147000006E002EFED78A909390110E006E002E03
:10148000FED78A929392D00E436E20EC04F03FC0B8
:1014900043F020EC04F040C043F020EC04F09390C3
:1014A0000000938281A2FED7110E006E002EFED79F
:1014B00000D000009380110E006E002EFED79380A6
:1014C000110E006E002EFED79382110E006E002EBC
:1014D000FED78A909390110E006E002EFED78A924E
:1014E0009392D00E436E20EC04F00150419001B075
:1014F0004180D00E426E41B003D0425004081EE33A
:101500009380110E006E002EFED79382110E006E96
:10151000002EFED781A2FED78A909390110E006E06
:10152000002EFED78A929392D00E436E20EC04F0E8
:101530000150419001B04180422ADDD71200010ED6
:101540003E6E7BDF01C03EF0040E3F6E01C040F0F6
:1015500088DF010E3E6E71DF01C03EF0050E3F6E6A
:1015600001C040F07EDF3E6A68DF01C03EF0060E3B
:101570003F6E01C040F075DF2EC03EF05EDF01C05F
:101580003EF0020E3F6E01C040F06BDF2DC03EF01A
:1015900054DF01C03EF0010E3F6E01C040F061DF3C
:1015A0003E6A4BDF01C03EF03F6A01C040F059DFA8
:1015B0002DEF10F05450B608546E036A55C058F021
:1015C000558ED8905532563257320332023201329C
:1015D0000032542EF6D758AE0BD0001E011E021E4C
:1015E000031E002AD8B4012AD8B4022AD8B4032A88
:1015F00069EF0BF0D8B203D0EA6A5C0EE96E006ABC
:10160000016A026A036A5C6A5D6A5E6A5F6A5B50CD
:101610005A10591058102CE0200E606FD890543694
:101620005536563657365C365D365E365F365B501D
:101630005F5C08E15A505E5C05E159505D5C02E177
:1016400058505C5C0FE358505C5E5950D8A0593C30
:101650005D5E5A50D8A05A3C5E5E5B50D8A05B3CA1
:101660005F5ED8800036013602360336602FD6D74B
:101670005CC0EFFF5DC0ECFF5EC0ECFF5FC0ECFF45
:101680001200E9504C6E4B504E6E1AE04AC063F0A7
:1016900049C062F048C061F047C060F0676B666B9C
:1016A000200E656F820E646F5EEC05F003C04AF099
:1016B00002C049F001C048F000C047F04E2EE6D706
:1016C0004AC057F049C056F048C055F047C054F0E2
:1016D00071D703C04AF002C049F001C048F000C011
:1016E00047F04AAE0DD04C064C8A471E481E491E94
:1016F0004A1E472AD8B4482AD8B4492AD8B44A2A14
:101700003B0E536E9A0E526ECA0E516E506A0A0EFE
:101710004E6E4B50D8B44C2AD882EA6A470EE96E16
:101720004AC057F049C056F048C055F047C054F081
:1017300053C05BF052C05AF051C059F050C058F03D
:1017400059DF015000520FE14B284E5C0CE04C5029
:101750000CE00F0B4E5C01E03BE24CBE39D04CBCC0
:1017600004D0200E30D0200E4C164CAA0DD04C9A2E
:101770004B50D8A44C0600504C6E2D0E546E5BECB2
:1017800002F04C50006E4C6A4B504E5C0BE1005026
:101790004C6E2E0E546E5BEC02F04C50006E200E20
:1017A0004C16000E300E4CAA0ED04C9A4B50D8A4BA
:1017B0004C0600504C6E2D0E546E5BEC02F04C50FB
:1017C000006E4C6A300E002600C054F05BEC02F054
:1017D000D89253C057F052C056F051C055F050C087
:1017E00054F05B6A5A6A596A0A0E586E03DF03C0E6
:1017F00053F002C052F001C051F000C050F04E2E24
:101800008BD712003E80880EF66E010EF76E7CECD0
:1018100002F03EA008D1F2CF47F0F29E050EA96E6D
:10182000A69CA69EA680A85047BEF28EF2CF47F097
:10183000F29E060EA96EA69CA69EA680A85047BE44
:10184000F28E020E476EFA0E616F88EC01F0472EA1
:10185000FAD7F2CF47F0F29E060EA96EA69CA69E7E
:10186000A680A85047BEF28E486E48C049F00CECE6
:1018700007F003C042F002C041F001C040F000C0D8
:101880003FF0020E476EFA0E616F88EC01F0472EB2
:10189000FAD7F2CF47F0F29E050EA96EA69CA69E3F
:1018A000A680A85047BEF28E486E48C049F00CECA6
:1018B00007F003C046F002C045F001C044F000C08C
:1018C00043F0010E556E566E4AEC02F0010E596E51
:1018D000040E5A6EEAEC01F0020EE96E46C04AF0C0
:1018E00045C049F044C048F043C047F0010E4B6E7C
:1018F000C8DE010E596E020E5A6EEAEC01F0200E9F
:10190000546E5BEC02F0200E546E5BEC02F0010EA4
:10191000596E050E5A6EEAEC01F0020EE96E42C0F5
:101920004AF041C049F040C048F03FC047F0010EC6
:101930004B6EA7DE010E596E020E5A6EEAEC01F0F4
:1019400002DC66EC08F00150010A05E0010A36E00D
:10195000020A67E067D0F250006EF29E050EA96E93
:10196000020EA86EA69CA69EA6840F01550EA76E19
:10197000AA0EA76EA682A6B2FED7A6940050F212B7
:10198000F2CF00F0F29E060EA96E010EA86EA69C84
:10199000A69EA684550EA76EAA0EA76EA682A6B214
:1019A000FED7A6940050F212000196EC08F08A0EC1
:1019B000F66E010EF76E7CEC02F034D0F250006E41
:1019C000F29E050EA96E010EA86EA69CA69EA68488
:1019D0000F01550EA76EAA0EA76EA682A6B2FED75D
:1019E000A6940050F212F2CF00F0F29E060EA96EFD
:1019F000020EA86EA69CA69EA684550EA76EAA0EE1
:101A0000A76EA682A6B2FED7A6940050F2120001DD
:101A100096EC08F0960EF66E010EF76E7CEC02F076
:101A200001D03E90F6D64EEF10F02A5208E12B502E
:101A3000070805E30DB203D02B2A96EC08F02A2CF8
:101A400008D02B50000805E20DB203D02B0696EC0F
:101A500008F02A50020803E12B5201E00D822B50BE
:101A6000F70FD8B01CEF11F0090F1EEF11F0DE0ECA
:101A7000F66E010EF76E7CEC02F0A3EC08F0040E9B
:101A80003E6EFA0E616F88EC01F03E2EFAD70D9291
:101A90002B6AEA0EF66E010EF76E7CEC02F0CCD3E8
:101AA000EC0EF66E010EF76E7CEC02F0A3EC08F083
:101AB0000DA20ED0C8EF08F096EC08F096EC08F0F6
:101AC0000D922B6AFA0EF66E010EF76E7CEC02F0A8
:101AD000B3D3FC0EF66E010EF76E7CEC02F0A3ECB5
:101AE00008F00DA294D0F2CF3EF0F29E010EA96E46
:101AF000A69CA69EA680A8503EBEF28E3F6E3FC01A
:101B000040F033EC09F001C03FF0F250006EF29E5D
:101B1000010EA96E3FC0A8FFA69CA69EA6840F0139
:101B2000550EA76EAA0EA76EA682A6B2FED7A694E1
:101B30000050F212F2CF3EF0F29E020EA96EA69C69
:101B4000A69EA680A8503EBEF28E3F6E3FC040F0DB
:101B5000000181EC09F001C03FF0F250006EF29EEE
:101B6000020EA96E3FC0A8FFA69CA69EA6840F01E8
:101B7000550EA76EAA0EA76EA682A6B2FED7A69491
:101B80000050F212F2CF3EF0F29E010EA96EA69C1A
:101B9000A69EA680A8503EBEF28E3F6EF2CF40F0C9
:101BA000F29E020EA96EA69CA69EA680A85040BEDC
:101BB000F28E416E0C0EF66E020EF76E0B0E426E3A
:101BC0000001CAEC03F03FC042F01B0E436EEDEC87
:101BD00003F03A0E546E5BEC02F041C042F01B0E73
:101BE000436EEDEC03F0080E3E6EFA0E616F88EC6A
:101BF00001F03E2EFAD796EC08F096EC08F00D9224
:101C00002B6A1E0EF66E020EF76E7CEC02F014D3F9
:101C1000200EF66E020EF76E7CEC02F0A3EC08F0DC
:101C20000DA294D0F2CF3EF0F29E030EA96EA69CB8
:101C3000A69EA680A8503EBEF28E3F6E3FC040F0EA
:101C400033EC09F001C03FF0F250006EF29E030E3B
:101C5000A96E3FC0A8FFA69CA69EA6840F01550EA4
:101C6000A76EAA0EA76EA682A6B2FED7A6940050B3
:101C7000F212F2CF3EF0F29E040EA96EA69CA69E32
:101C8000A680A8503EBEF28E3F6E3FC040F00001DD
:101C900081EC09F001C03FF0F250006EF29E040E9C
:101CA000A96E3FC0A8FFA69CA69EA6840F01550E54
:101CB000A76EAA0EA76EA682A6B2FED7A694005063
:101CC000F212F2CF3EF0F29E030EA96EA69CA69EE3
:101CD000A680A8503EBEF28E3F6EF2CF40F0F29E3C
:101CE000040EA96EA69CA69EA680A85040BEF28EA9
:101CF000416E320EF66E020EF76E0B0E426E000152
:101D0000CAEC03F03FC042F01B0E436EEDEC03F053
:101D10003A0E546E5BEC02F041C042F01B0E436E73
:101D2000EDEC03F0080E3E6EFA0E616F88EC01F0E8
:101D30003E2EFAD796EC08F096EC08F00D922B6A3E
:101D4000440EF66E020EF76E7CEC02F075D2460E73
:101D5000F66E020EF76E7CEC02F0A3EC08F00DA21A
:101D6000A0D0F2CF3EF0F29E070EA96EA69CA69ED2
:101D7000A680A8503EBEF28E3F6E3FC040F033ECCE
:101D800009F001C03FF0F250006EF29E070EA96EFE
:101D90003FC0A8FFA69CA69EA6840F01550EA76E65
:101DA000AA0EA76EA682A6B2FED7A6940050F21283
:101DB000F2CF3EF0F29E080EA96EA69CA69EA680CB
:101DC000A8503EBEF28E3F6E3FC040F00001CFEC07
:101DD00009F001C03FF0F250006EF29E080EA96EAD
:101DE0003FC0A8FFA69CA69EA6840F01550EA76E15
:101DF000AA0EA76EA682A6B2FED7A6940050F21233
:101E0000F2CF3EF0F29E070EA96EA69CA69EA6807B
:101E1000A8503EBEF28E3F6EF2CF40F0F29E080E0A
:101E2000A96EA69CA69EA680A85040BEF28E416ECA
:101E3000540EF66E020EF76E110E426E0001CAECE1
:101E400003F03FC042F01B0E436EEDEC03F0670E53
:101E5000F66E020EF76E030E426ECAEC03F041C03E
:101E600042F01B0E436EEDEC03F0200E546E5BEC63
:101E700002F0730E546E5BEC02F0080E3E6EFA0E2A
:101E8000616F88EC01F03E2EFAD796EC08F096ECE4
:101E900008F00D922B6A700EF66E020EF76E7CEC57
:101EA00002F0CAD1720EF66E020EF76E7CEC02F0F2
:101EB000A3EC08F00DA2A0D0F2CF3EF0F29E090EE6
:101EC000A96EA69CA69EA680A8503EBEF28E3F6E2E
:101ED0003FC040F033EC09F001C03FF0F250006E1B
:101EE000F29E090EA96E3FC0A8FFA69CA69EA684DE
:101EF0000F01550EA76EAA0EA76EA682A6B2FED738
:101F0000A6940050F212F2CF3EF0F29E100EA96E8F
:101F1000A69CA69EA680A8503EBEF28E3F6E3FC0F5
:101F200040F00001CFEC09F001C03FF0F250006E2C
:101F3000F29E100EA96E3FC0A8FFA69CA69EA68486
:101F40000F01550EA76EAA0EA76EA682A6B2FED7E7
:101F5000A6940050F212F2CF3EF0F29E090EA96E46
:101F6000A69CA69EA680A8503EBEF28E3F6EF2CFE3
:101F700040F0F29E100EA96EA69CA69EA680A850C8
:101F800040BEF28E416E800EF66E020EF76E110E9E
:101F9000426E0001CAEC03F03FC042F01B0E436EDC
:101FA000EDEC03F0930EF66E020EF76E030E426E2A
:101FB000CAEC03F041C042F01B0E436EEDEC03F09F
:101FC000200E546E5BEC02F0730E546E5BEC02F06C
:101FD000080E3E6EFA0E616F88EC01F03E2EFAD7C5
:101FE00096EC08F096EC08F00D922B6A9C0EF66EBB
:101FF000020EF76E7CEC02F01FD19E0EF66E020E02
:10200000F76E7CEC02F0A3EC08F00DA23AD02EC0E3
:1020100040F033EC09F001C02EF02DC040F081EC0F
:1020200009F001C02DF0A60EF66E020EF76E0B0E33
:10203000426ECAEC03F02EC042F01B0E436EEDEC74
:1020400003F03A0E546E5BEC02F02DC042F01B0E12
:10205000436EEDEC03F09FEF0AF00C0E3E6EFA0EAD
:10206000616F88EC01F03E2EFAD796EC08F096EC02
:1020700008F00D922B6AB80EF66E020EF76E7CEC2D
:1020800002F0DAD0BA0EF66E020EF76E7CEC02F0B9
:10209000A3EC08F00DA20AD002EF0CF00D922B6A0F
:1020A000C40EF66E020EF76E7CEC02F0C5D0C60EC2
:1020B000F66E020EF76E7CEC02F0A3EC08F00DA2B7
:1020C000BBD096EC08F096EC08F0F250006EF29E51
:1020D000A96A190EA86EA69CA69EA6840F01550E8D
:1020E000A76EAA0EA76EA682A6B2FED7A69400502F
:1020F000F212F2CF00F0F29E010EA96EA86AA69C21
:10210000A69EA684550EA76EAA0EA76EA682A6B29C
:10211000FED7A6940050F212F2CF00F0F29E020E0B
:10212000A96EA86AA69CA69EA684550EA76EAA0EA6
:10213000A76EA682A6B2FED7A6940050F212F2CFE6
:1021400000F0F29E030EA96EA86AA69CA69EA68425
:10215000550EA76EAA0EA76EA682A6B2FED7A694AB
:102160000050F212F2CF00F0F29E040EA96EA86A9F
:10217000A69CA69EA684550EA76EAA0EA76EA68242
:10218000A6B2FED7A6940050F212F2CF00F0F29E53
:10219000070EA96EA86AA69CA69EA684550EA76ED9
:1021A000AA0EA76EA682A6B2FED7A6940050F2127F
:1021B000F2CF00F0F29E080EA96EA86AA69CA69E19
:1021C000A684550EA76EAA0EA76EA682A6B2FED74B
:1021D000A6940050F212F2CF00F0F29E090EA96E02
:1021E000A86AA69CA69EA684550EA76EAA0EA76EE8
:1021F000A682A6B2FED7A6940050F212F2CF00F04B
:10220000F29E100EA96EA86AA69CA69EA684550EE4
:10221000A76EAA0EA76EA682A6B2FED7A6940050FD
:10222000F2120D922B6A000196EC08F0D60EF66EB3
:10223000020EF76E7CEC02F0F6EF12F0E824F76A7B
:10224000F736570FF66E220EF7220A00F550FA6E97
:102250000800F550F96E6E1AA01AD21A101C4E1D05
:10226000A41EFA1F8420AE20010E556E020E566E7B
:102270004AEC02F0010E596E040E5A6EEAEC01F0BF
:10228000020EE96E41C04AF040C049F03FC048F03C
:102290003EC047F0010E4B6E41EC0BF0010E596E43
:1022A000020E5A6EEAEC01F002EF13F00B0E556EBF
:1022B000020E566E4AEC02F0010E596E050E5A6E71
:1022C000EAEC01F0020EE96E41C04AF040C049F06C
:1022D0003FC048F03EC047F0010E4B6E41EC0BF0A2
:1022E000010E596E020E5A6EEAEC01F00BEF13F07C
:1022F000200E3FA8300E406E3EC000F03EAE08D02B
:10230000001E002A00C03EF02D0E406E3F8E3F8022
:1023100001503EC044F0640E456ED9EC03F000C09D
:102320003EF0300E0124416E3EC044F00A0E456E70
:10233000D9EC03F0300E0024436E300E0124426EBF
:1023400040C000F0300E415C04E03F823FBE3F845D
:1023500012D040C041F0200E406E300E425C04E0CE
:102360003F803FBE3F8207D0D8A43F8004E141C0F8
:1023700042F0200E416E3FB405D03FB207D03FB0CF
:1023800009D00CD040C054F05BEC02F041C054F0D6
:102390005BEC02F042C054F05BEC02F043C054F03E
:1023A0005BEC02F012000B0E556E010E566E4AECFD
:1023B00002F0010E596E060E5A6EEAEC01F02EC0C4
:1023C0003EF0180E3F6E94DF3A0E546E5BEC02F056
:1023D0002DC03EF0180E3F6E8BDF0CEF13F0415016
:1023E0004302F3CF01F0F4CF00F04402F350002693
:1023F00042504302F3500020026E1200F86AD09E51
:102400000C6A0D90660E286E296E030E2A6E2B6ADA
:102410000D92C150C00B0F09C16E070EB46E3B6A1E
:102420003C6A3D6A93988A9895968C96949C8B9C6E
:1024300096928D820BEF02F032EF02F0D80EF66E1C
:10244000020EF76E7CEC02F0DA0EF66E020EF76EFC
:102450007CEC02F0080E3E6EFA0E616F88EC01F023
:102460003E2EFAD792EF03F001C03DF0F00EF66E6B
:10247000020EF76E090E426ECAEC03F03DC042F048
:102480001B0E436EEDEC03F0FB0EF66E020EF76EC4
:10249000090E426ECAEC03F0080E3E6EFA0E616F32
:1024A00088EC01F03E2EFAD70C0E546E5BEC02F075
:1024B000DFEF04F0640E616F88EC01F0F2CF3EF0C4
:1024C000F29E050EA96EA69CA69EA680A8503EBEB2
:1024D000F28E04084BE3010E556E566E4AEC02F084
:1024E000F2CF3EF0F29E060EA96EA69CA69EA68096
:1024F000A8503EBEF28E3F6E3FC049F00CEC07F094
:1025000003C032F002C031F001C030F000C02FF043
:10251000020E3E6E960E616F88EC01F03E2EFAD7E9
:10252000010E556E566E4AEC02F0F2CF3EF0F29E6E
:10253000050EA96EA69CA69EA680A8503EBEF28E51
:102540003F6E3FC049F00CEC07F003C036F002C00C
:1025500035F001C034F000C033F0020E3E6E960E2E
:10256000616F88EC01F03E2EFAD708D0326A316AEA
:10257000306A2F6A366A356A346A336AF2CF3EF0BF
:10258000F29EA96AA69CA69EA680A8503EBEF28E88
:10259000656B646F43EC05F003C03AF002C039F09C
:1025A00001C038F000C037F03AC041F039C040F007
:1025B00038C03FF037C03EF0456A446A7F0E436E34
:1025C000860E426E2BEC08F006E13A6A396A480E34
:1025D000386E830E376E66EC08F001C02AF02A5080
:1025E000030804E096928D8215EF0DF02B52D8A4CB
:1025F0009ED136C041F035C040F034C03FF033C00A
:102600003EF032D632C041F031C040F030C03FF031
:102610002FC03EF04BD6C7D62E50110803E32E50E4
:10262000070803E396928D8202D096928D9236C06F
:1026300041F035C040F034C03FF033C03EF0456A51
:10264000446A436A426A2BEC08F04FE032C041F022
:1026500031C040F030C03FF02FC03EF0456A446AC0
:10266000436A426A2BEC08F040E036C041F035C0C6
:1026700040F034C03FF033C03EF03AC045F039C0BE
:1026800044F038C043F037C042F02BEC08F00CE3C4
:10269000010E556E566E4AEC02F0010E596E5A6EDE
:1026A000EAEC01F0949C8B8C3AC041F039C040F0C8
:1026B00038C03FF037C03EF036C045F035C044F07A
:1026C00034C043F033C042F02BEC08F00DE3010EB0
:1026D000556E566E4AEC02F0060EF66E030EF76E5D
:1026E0007CEC02F0949C8B9C0BD0010E556E566EC8
:1026F0004AEC02F0080EF66E030EF76E7CEC02F068
:10270000F2CF3EF0F29E010EA96EA69CA69EA68078
:10271000A8503EBEF28E2E5C1AE3F2CF3FF0F29E3E
:10272000020EA96EA69CA69EA680A8503FBEF28E61
:102730002D5C0DE3020E556E010E566E4AEC02F052
:10274000010E596E5A6AEAEC01F095968C86F2CF2A
:102750003EF0F29E030EA96EA69CA69EA680A850EF
:102760003EBEF28E2E5C1BE3F2CF3FF0F29E040ED3
:10277000A96EA69CA69EA680A8503FBEF28E2D5C98
:102780000EE3020E556E010E566E4AEC02F00A0E72
:10279000F66E030EF76E7CEC02F095968C96F2CFF7
:1027A0003EF0F29E070EA96EA69CA69EA680A8509B
:1027B0003EBEF28E000A57E0F2CF3EF0F29E070EC8
:1027C000A96EA69CA69EA680A8503EBEF28E3F6E25
:1027D0003B502E5C3F5C01E046E22EC03BF0030E16
:1027E000556E010E566E4AEC02F0010E596E070E40
:1027F0005A6EEAEC01F095968C8695988C88F2CF0B
:102800003EF0F29E080EA96EA69CA69EA680A85039
:102810003EBEF28E406E426A40C041F0030E446EEE
:10282000E80E436EDCDD02C040F001C03FF040C066
:1028300041F0412A4106D8B404D0616988EC01F026
:10284000F9D73FC061F088EC01F095988C98030EA1
:10285000556E010E566E4AEC02F00C0EF66E030E2B
:10286000F76E7CEC02F0F2CF3EF0F29E090EA96EFC
:10287000A69CA69EA680A8503EBEF28E000A57E0F7
:10288000F2CF3EF0F29E090EA96EA69CA69EA680EF
:10289000A8503EBEF28E3F6E3C502E5C3F5C01E085
:1028A00046E22EC03CF0040E556E010E566E4AEC08
:1028B00002F0010E596E070E5A6EEAEC01F0959681
:1028C0008C86949E8B8EF2CF3EF0F29E100EA96EF7
:1028D000A69CA69EA680A8503EBEF28E406E426A7E
:1028E00040C041F0030E446EE80E436E78DD02C036
:1028F00040F001C03FF040C041F0412A4106D8B449
:1029000004D0616988EC01F0F9D73FC061F088EC30
:1029100001F0949E8B9E040E556E010E566E4AEC8D
:1029200002F00E0EF66E030EF76E7CEC02F0C0D5D0
:022930000300A2
:020000040030CA
:0E00000024CE3E1E0087A1000FC00FE00F406F
:00000001FF
;PIC18F4550
;CRC=7E58  CREATED="08-paü-14 19:40"
