:1000000019308A00FF290000FF00030E8301A100C0
:100010000A08A0008A010408A2007708A300780853
:10002000A4007908A5007A08A60003170D08031399
:10003000A70003170F080313A80003170C080313E6
:10004000A90003170E080313AA00831383128B1E43
:100050002B280B194C28220884002308F7002408B9
:10006000F8002508F9002608FA00270803178D0074
:100070000313280803178F000313290803178C00A4
:1000800003132A0803178E00031320088A00210E89
:100090008300FF0E7F0E09008A110A124E290A10F2
:1000A0008A100A11820728340C34013406340A10ED
:1000B0008A100A1182070E341134113415340E34AB
:1000C0000E340E34043414340A3400340E340B3439
:1000D0000E341A340E340034083414340834033423
:1000E0000434043403340434143404341434043431
:1000F0000E340E34043400340A34153400340A3417
:1001000015340034003400340034003411340A341F
:100110000E340034003400340E34153417341134E6
:100120000E3400340034083402340834003404340B
:1001300000341F3400340034003400340034003400
:1001400000340034003420102010201000003C0047
:10015000EF3500013E000C00553A723DF936753519
:10016000A012751000000C00C737643D693761109C
:1001700025183232201000000C00CD34EE3AF43055
:10018000A0123019641020000C00D332EB3A6E320A
:10019000A0123019641020008C27F03AF331A036F9
:1001A000653775000C000C2AE536F032F230F43A6F
:1001B000F23000010C008C2B6C17EF39F734653AE4
:1001C000EC32EE3461008C2A733AE13BE937EE37CA
:1001D000A0123019641D2518323200010C008C2B3E
:1001E0007936AE37F33BE93274366537E9300001D2
:1001F0008C2A733AE13BE937EE37A0123019641DBF
:100200002518323200010C000C276138EF3BE9322F
:100210007439FA30EE3465008C2AF23A6334EF36E2
:10022000E932EE346505E337A01230196410E8179F
:1002300025183232A036693700010C008C2561394F
:10024000ED346537E93200018C2AF23A6334EF3637
:10025000E932EE346505E337A01230196410E8176F
:1002600025183232A03900010C000C2DE53361391C
:1002700000018C2A733AE13BE937EE37A0123019BE
:10028000641D2518323200010C000C2AE539F43ABD
:100290006A000C3AE539741D00010C0064000B1172
:1002A0008A110A122B280C27EF3BE522EE32F2339B
:1002B000E932AE37F2330A3B331734008C2B633DFF
:1002C000793A6137E9320A32EF36F9396C37F93168
:1002D0006810F539F430F734653700010C2A6539B8
:1002E000ED37ED3274390A3DE134EE39F430EC3754
:1002F000F730EE3C2E000C286F32EC30633D0A3AAA
:100300006539ED37ED327439210063308400831391
:100310000008031998290630F800F701F70B8E2919
:10032000F80B8D297B30F700F70B9429800B8B2974
:100330000800831688138312881383160813831208
:1003400008170000EB01831688128312881600003C
:100350008316081683126B10081A6B14BC163C081F
:10036000831687008312EB10871AEB143C163C08A7
:100370008316870083126B11071A6B158316881575
:100380008312EB118819EB158316881283128812D9
:100390006B08F8007808EA00EB01831688128312D4
:1003A000881600008316081683126B10081A6B1447
:1003B000BC163C08831687008312EB10871AEB14D7
:1003C0003C163C088316870083126B11071A6B15C5
:1003D000831688158312EB118819EB158316881282
:1003E000831288126B08F8007808E9006A0EF7009B
:1003F000F030F70577086904F8007808E900E91B90
:100400009D29E7080319092A831688138312881780
:100410000D2A83168813831288130000831608138D
:100420008312081300008316881283128812680E44
:10043000E9000F30E9056908EA006A18212A081264
:10044000222A0816831608128312EA18292A87120C
:100450002A2A8716BC123C088316870083126A1961
:10046000332A0712342A07163C123C0883168700E9
:100470008312EA193D2A88113E2A881583168811AD
:1004800000008812831288160230F700F70B462A04
:10049000492A0000831688128312881268080F39CF
:1004A000E9006908EA006A18572A0812582A08164B
:1004B000831608128312EA185F2A8712602A8716A9
:1004C000BC123C088316870083126A19692A071236
:1004D0006A2A07163C123C08831687008312EA1921
:1004E000732A8811742A88158316881100008812CF
:1004F000831288160230F700F70B7C2A7F2A00004F
:1005000083168812831288120800831688138312B8
:100510008813831608138312081383168812831214
:1005200088120F30E3008521D1015108023C031CE1
:10053000D12A0330EA006A189F2A0812A02A081656
:10054000831608128312EA18A72A8712A82A871688
:10055000BC123C088316870083126A19B12A07125D
:10056000B22A07163C123C08831687008312EA1948
:10057000BB2A8811BC2A88158316881100008812AE
:10058000831288160230F700F70BC42AC72A00002E
:1005900083168812831288120530E3008521D10A60
:1005A000952A0230EA006A18D72A0812D82A0816B3
:1005B000831608128312EA18DF2A8712E02A8716A8
:1005C000BC123C088316870083126A19E92A0712B5
:1005D000EA2A07163C123C08831687008312EA19A0
:1005E000F32A8811F42A88158316881100008812CE
:1005F000831288160230F700F70BFC2AFF2A00004E
:100600008316881283128812D1015108033C031CFF
:10061000122B51084F20D200E7015208E80099211F
:10062000D10A052B8A150A16732AE7014030E80023
:100630009921D10151083F3C031C2B2B5108572015
:10064000D2000130E7005208E80099210230E300AF
:100650008521D10A1A2B8A150A16832A640B312B9D
:10066000342B4030E500352BE50101306302E5070E
:1006700065088038E600E7016608E800992108006F
:1006800062080C3A03194B2B063A0319532B023A12
:100690000319592B5E2BE7010130E8009921023044
:1006A000E3008521632B0130E3000230E4002E23B8
:1006B000632BE7011030E8009921632B0130E7003C
:1006C0006208E800992108000B08D5008B138316F7
:1006D00003178C170C140000000083120313D51BA2
:1006E0008B1703170C087F390319B82B0313D50098
:1006F00003170D080313D60003170F080313D700C1
:100700005508E2004023560803178D0003135708CD
:1007100003178F0003130B08D8008B1383160317DE
:100720008C170C140000000083120313D81B8B17C6
:1007300003170C0D0E0D7F390319B82B0313D500C9
:1007400003170D080313D60003170F080313D70070
:100750005508E2004023560803178D00031357087D
:1007600003178F008D0A03198F0A0313642B0317D5
:10077000031308000B08F7008B1303178D011A30C1
:100780008C0083168C130C1555308D00AA308D000B
:100790008C148C18C92B0C117708831203138B044B
:1007A0000B08F7008B13013003178D0007308C0006
:1007B00083168C130C1555308D00AA308D008C14C7
:1007C0008C18E02B0C117708831203138B040B0891
:1007D000F7008B13023003178D0001308C00831655
:1007E0008C130C1555308D00AA308D008C148C188C
:1007F000F72B0C117708831203138B040B08F700F7
:100800008B13033003178D0012308C0083168C136A
:100810000C1555308D00AA308D008C148C180E2CC0
:100820000C117708831203138B040B08F7008B134A
:10083000043003178D0001308C0083168C130C15C7
:1008400055308D00AA308D008C148C18252C0C117D
:100850007708831203138B040B08F7008B13053002
:1008600003178D008C0183168C130C1555308D00E9
:10087000AA308D008C148C183B2C0C117708831235
:1008800003138B040B08F7008B13063003178D003E
:100890008C0183168C130C1555308D00AA308D00F9
:1008A0008C148C18512C0C117708831203138B04B1
:1008B0000B08F7008B13073003178D008C0183168C
:1008C0008C130C1555308D00AA308D008C148C18AB
:1008D000672C0C117708831203138B040B08F700A5
:1008E0008B13083003178D008C0183168C130C15A5
:1008F00055308D00AA308D008C148C187D2C0C1175
:100900007708831203138B048A150A16BD2A013057
:10091000D300D400D5015611D2015208073C031C64
:10092000982C3E305207840083138001D20A8D2C0C
:1009300083168611831286110230E000EF30E10049
:100940000330E102031CAE2C6130840083130008E5
:100950000319AE2CAC2CAC2C800BAB2CE00B9E2CDA
:1009600083168611831286154230F700F70BB62CDA
:1009700000008316861583125F1086195F140230FB
:10098000E000D330E1000330E102031CD12C6130E0
:100990008400831300080319D12CCF2CCF2C800B9B
:1009A000CE2CE00BC12C00305F180130F800D610BF
:1009B0007818D614D618DE2CAD1CE22CBD01003000
:1009C000F800D92DF030E200E3016308073C031C76
:1009D000132D6208E4006308F8000319F32C0310D8
:1009E000E40CF80BEF2C0130E4056408E5008316F5
:1009F0008611831286110230F700F70BFD2C002DB3
:100A00000000E5080319082D831686118312861548
:100A1000A630F700F70B0A2D00008316861183120B
:100A20008615E30AE52CAE30F700F70B152D182DCF
:100A3000D201D10183168611831286110230F7008C
:100A4000F70B202D232D0000831686150730F700A5
:100A5000F70B282D2B2D00008615831263108619A5
:100A60006314003063180130F800F80803193A2DB8
:100A70000230D100C730F700F70B3C2D3F2D831615
:100A80008611831286110230F700F70B452D482D91
:100A90000000831686150730F700F70B4D2D502DFB
:100AA00000008615831263108619631400306318E2
:100AB0000130F800F808031D5114C730F700F70B98
:100AC0005F2D622D5108033C031D682DC82DC42DD8
:100AD000D1080319722D56100310510CF800781824
:100AE0005614892D3D0854020318802D56103E30AF
:100AF00052078400831300085305031D5614852DE7
:100B000056103D085402031956145618892D5408DE
:100B1000D500561C932D3E305207840083130008E5
:100B2000530480009B2D3E305207840083135308EA
:100B3000FF3A00058000003056180130D7005708F2
:100B4000E50083168611831286110230F700F70B39
:100B5000A72DAA2D0000E5080319B22D83168611D2
:100B600083128615A630F700F70BB42D000083160C
:100B7000861183128615D40A0310D30DD308031DE2
:100B8000C42DD20A0130D3005208073C0318192D96
:100B90005408403C031CCE2DBD01D52D5508BD0089
:100BA000AD10BD080319AD145615003056190130AB
:100BB000F8000800BD01AD108724780808008316EE
:100BC0008810831288145508E30085218316881045
:100BD000831288100530E300852108000830F800F2
:100BE0001F08C73978049F000130E30085211F15D5
:100BF0001F19F82D83161E088312D4000330E3005A
:100C000085215408093C031C132EC8010230D5006D
:100C1000FA30E3008521D50B082E0A30D500DF25F8
:100C20000130F800582E5408E63C0318402E540FAB
:100C30001A2E402E4808023C031D2D2E0130C807F5
:100C40000230D500FA30E3008521D50B222E0A3080
:100C5000D500DF250230F800582E4808023C031C5E
:100C60003D2E0130C8070230D500FA30E30085215F
:100C7000D50B352E0330F800582E0330F800582ECF
:100C800054088C3C0318562E5408A43C031C562EC2
:100C90000A30D500DF25C8010230D500FA30E30064
:100CA0008521D50B4E2E0030F800582E0330F80069
:100CB00008000130E3000230E4002E23A7300317C0
:100CC0008D0000308F00031364230830E3000230EE
:100CD000E4002E23A83003178D0000308F0003138B
:100CE00064231030E3000230E4002E23AA300317FF
:100CF0008D0000308F000313642308000B08D5001B
:100D00008B13831603178C170C140000000083123A
:100D10000313D51B8B170318B52E03170C087F3947
:100D20000313D50003170D080313D60003170F088C
:100D30000313D7005508E2004023560803178D001F
:100D40000313570803178F0003130B08D8008B13E6
:100D5000831603178C170C14000000008312031372
:100D6000D81B8B17D40BB52ED42E03170C0D0E0DDC
:100D70007F390313D50003170D080313D60003179B
:100D80000F080313D7005508E20040235608031745
:100D90008D000313570803178F008D0A03198F0A5C
:100DA00003100313D40B7E2E08002030551E303064
:100DB000D6005408F700F71FE52EF709F70A770861
:100DC000D4002D30D600D517551478085408DA0011
:100DD0006430DB005B08F8015A020318F22E5A084F
:100DE000F700FE2EF7010830DC00DA0DF70D5B0886
:100DF00077020318F700F80DDC0BF52E7708D40006
:100E000030307807D7005408DA000A30DB005B087E
:100E1000F8015A0203180F2F5A08F7001B2FF70189
:100E20000830DC00DA0DF70D5B0877020318F700D5
:100E3000F80DDC0B122F30307707D90030307807EF
:100E4000D8005608F7003030570203192B2FD5145D
:100E5000D51B55153F2F55193F2F5608D700D518CC
:100E6000362F303058020319392F5514D51BD5149D
:100E70003F2F031D5514031D3F2F5708D800551948
:100E8000462FD518492F55184C2F4F2F5608E200E2
:100E900040235708E20040235808E2004023590845
:100EA000E200402308005314B33003178D000030D4
:100EB0008F000313642359260430D400C830E300A4
:100EC0008521D40B5E2F531C9B2F0230E300013091
:100ED000E4002E23B43003178D0000308F00031080
:100EE00008300313D4007E265208D4000130D50008
:100EF000D5262030E20040232030E2004023EE25BA
:100F00007808013A03198B2F013A0319922F023AFC
:100F10000319992F9A2F0130D202520F912F1830B6
:100F2000D2009A2F0130D2075208183C031CD2017C
:100F30009A2F5310632F5208F80008005314BC3046
:100F400003178D0000308F000313642359260430EB
:100F5000D400C830E3008521D40BA92F531CE62F01
:100F60000230E3000130E4002E23BD3003178D0072
:100F700000308F00031007300313D4007E26520880
:100F8000D4000130D500D5262030E20040232030A7
:100F9000E2004023EE257808013A0319D62F013AE2
:100FA0000319DD2F023A0319E42FE52F0130D20295
:100FB000520FDC2F3B30D200E52F0130D207520810
:100FC0003B3C031CD201E52F5310AE2F5208F80012
:100FD00008001030D500F701FA01D20CD10C031C27
:100FE000F72F5308F7070318FA0A5408FA07FA0C00
:0C0FF000F70CF90CF80CD50BED2F0800E5
:101000000830F8000430F700F70B04288610831628
:1010100086100330F700F70B0B288312D60D06104D
:10102000031C152883160614831203181A28831626
:1010300006108312831686148312861C1D28F80B53
:1010400002280430F700F70B232886108316861039
:10105000000006140330F700F70B2C280330F700CC
:10106000F70B302886148312861C3428F8010330CD
:10107000F700F70B392806187814861083168610A7
:1010800083120610831606108312080083160614B6
:101090000430F700F70B4A2886140330F700F70BEB
:1010A0004F2883120610831606100430F700F70B42
:1010B00057288312861083168610D0308312D600EC
:1010C00000205208D60000205308D60000208316C6
:1010D0000610000086148312861C6C280430F7006A
:1010E000F70B702873280000831606140430F700ED
:1010F000F70B782806140430F700F70B7D288614C8
:101100000330F700F70B82288312061083160610AF
:101110000430F700F70B8A28831286108316861096
:10112000D0308312D6000020780854107818541458
:10113000D030D5005418A0285508043C031CC328FF
:10114000831606140430F700F70BA4288614033026
:10115000F700F70BA9288312861CAC28061083160B
:1011600006100430F700F70BB3288312861083169D
:101170008610D0308312D6000020780854107818DA
:101180005414D50A9A280800831606140430F70070
:10119000F70BC82886140330F700F70BCD2883120D
:1011A000861CD0280610831606100430F700F70BB3
:1011B000D7288312861083168610D0308312D6006B
:1011C00000205108D6000020831606140430F700D2
:1011D000F70BE82886140330F700F70BED2883128D
:1011E000861CF0280610831606100430F700F70B53
:1011F000F7288312861083168610D1308312D6000A
:101200000020F7010830D4007708D50083160614B3
:101210000330F700F70B0A2986148312861C0E2967
:1012200006180314061C0310F80D0430F700F70B22
:1012300017298316861083128610D40B062983166D
:1012400006140330F700F70B232983120610550804
:1012500003192D29831606108312000083168614A5
:101260008312861C31290430F700F70B35298610CC
:10127000831686100330F700F70B3C298312061003
:101280008316061078088312D20083160610000019
:1012900086148312861C4A290430F700F70B4E2966
:1012A00051290000831606140430F700F70B562965
:1012B00083125208F8000800F701F80155080310DE
:1012C0005618F707F70CF80CD618F707F70CF80CB8
:1012D0005619F707F70CF80CD619F707F70CF80CA6
:1012E000561AF707F70CF80CD61AF707F70CF80C94
:1012F000561BF707F70CF80CD61BF707F70CF80C82
:101300000800D101C4207808D1005108D200520E43
:10131000F7000F30F7057708D400D5000A30D60063
:101320005C217808D30052080F397807F800780854
:10133000AE000130E3008A1185218A150130D10009
:10134000C4207808D1005108D200520EF7000F30A7
:10135000F7057708D400D5000A30D6005C2178085C
:10136000D30052080F397807F8007808AF00013031
:10137000E3008A1185218A150230D100C420780843
:10138000D1005108D200520EF7000F30F705770850
:10139000D400D5000A30D6005C217808D30052086A
:1013A0000F397807F8007808B0000130E3008A119F
:1013B00085218A158A150A16292B8E30F7005208C6
:1013C000F8005108F900FA01F808031DF12979081D
:1013D000F800F9010830F702F808031DF129F701B8
:1013E000F9290310F81BF829F90DF80DF703F12975
:1013F000F813080083168611831286110230E0006C
:10140000EF30E1000330E102031C102A6130840058
:10141000831300080319102A0E2A0E2A800B0D2AA6
:10142000E00B002A83168611831286154230F700DE
:10143000F70B182A00008316861583125F10861991
:101440005F140230E000D330E1000330E102031CFE
:10145000332A61308400831300080319332A312AA8
:10146000312A800B302AE00B232A00305F1801302C
:10147000F8005530DF005F08553C031DB92A553090
:10148000E200E3016308073C031C702A6208E400E1
:101490006308F8000319502A0310E40CF80B4C2AD7
:1014A0000130E4056408E500831686118312861175
:1014B0000230F700F70B5A2A5D2A0000E5080319ED
:1014C000652A8316861183128615A630F700F70B5E
:1014D000672A00008316861183128615E30A422AC2
:1014E000AE30F700F70B722A752AE0016008073C5E
:1014F000031CB82A3E306007840083130008E10013
:101500006108E200E3016308073C031CB12A62089A
:10151000E4006308F8000319912A0310E40CF80BA7
:101520008D2A0130E4056408E500831686118312D4
:1015300086110230F700F70B9B2A9E2A0000E5086F
:101540000319A62A8316861183128615A630F70082
:10155000F70BA82A00008316861183128615E30A6A
:10156000832AAE30F700F70BB32AB62AE00A762AB0
:10157000EF2ACC30E200E3016308073C031CEA2AAF
:101580006208E4006308F8000319CA2A0310E40C97
:10159000F80BC62A0130E4056408E50083168611BD
:1015A000831286110230F700F70BD42AD72A0000E5
:1015B000E5080319DF2A8316861183128615A630E3
:1015C000F700F70BE12A00008316861183128615B7
:1015D000E30ABC2AAE30F700F70BEC2AEF2A831699
:1015E0008611831286154430E200E3016308073C4C
:1015F000031C242B6208E4006308F8000319042B81
:101600000310E40CF80B002B0130E4056408E5003E
:1016100083168611831286110230F700F70B0E2B0A
:10162000112B0000E5080319192B8316861183126C
:101630008615A630F700F70B1B2B000083168611CA
:1016400083128615E30AF62AAE30F700F70B262B35
:10165000292B0330DF00FA30E3008A1185218A1537
:10166000DF0B2B2B83168611831286110230E000CC
:10167000EF30E1000330E102031C482B61308400AD
:10168000831300080319482B462B462B800B452B50
:10169000E00B382B83168611831286154230F70033
:1016A000F70B502B00008316861583125F108619E6
:1016B0005F140230E000D330E1000330E102031C8C
:1016C0006B2B613084008313000803196B2B692B8B
:1016D000692B800B682BE00B5B2B00305F1801300F
:1016E000F8005530DF005F08553C031DF12B5530E5
:1016F000E200E3016308073C031CA82B6208E40036
:101700006308F8000319882B0310E40CF80B842BF2
:101710000130E4056408E500831686118312861102
:101720000230F700F70B922B952B0000E508031908
:101730009D2B8316861183128615A630F700F70BB2
:101740009F2B00008316861183128615E30A7A2BDD
:10175000AE30F700F70BAA2BAD2BE0016008073C79
:10176000031CF02B3E306007840083130008E10067
:101770006108E200E3016308073C031CE92B6208EF
:10178000E4006308F8000319C92B0310E40CF80BFC
:10179000C52B0130E4056408E50083168611831229
:1017A00086110230F700F70BD32BD62B0000E5088B
:1017B0000319DE2B8316861183128615A630F700D7
:1017C000F70BE02B00008316861183128615E30ABF
:1017D000BB2BAE30F700F70BEB2BEE2BE00AAE2B5A
:1017E000272CCC30E200E3016308073C031C222CC9
:1017F0006208E4006308F8000319022C0310E40CEB
:10180000F80BFE2B0130E4056408E5008316861111
:10181000831286110230F700F70B0C2C0F2C0000FE
:10182000E5080319172C8316861183128615A63036
:10183000F700F70B192C000083168611831286150A
:10184000E30AF42BAE30F700F70B242C272CBE3024
:10185000E200E3016308073C031C582C6208E40023
:101860006308F8000319382C0310E40CF80B342C2F
:101870000130E4056408E5008316861183128611A1
:101880000230F700F70B422C452C0000E508031945
:101890004D2C8316861183128615A630F700F70BA0
:1018A0004F2C00008316861183128615E30A2A2C1A
:1018B000AE30F700F70B5A2C5D2CD1015108083CD3
:1018C000031CAE2C56305107F800FA010318FA0A2F
:1018D0007808DF007A08E000E201E1016108073CD6
:1018E000031CA32C83168611831286110230F70085
:1018F000F70B782C7B2C0000831686150730F70039
:10190000F70B802C832C0000861583126310861938
:101910006314003063180130F800F80803199C2C98
:101920000130F7006108F80003199A2C0310F70D35
:10193000F80B962C7708E204C730F700F70B9E2CC3
:10194000A12CE10A6E2C6208F8005F088400831362
:101950006018831778088000D10A5E2CD301D20169
:10196000E0015708D300D201FA015608D2047A08E0
:10197000D3043E08103C031D0F2D0310D30CD20CD2
:101980005208D300D2014030D2020030031C013093
:10199000D3025C085D02D400D5015408D500D401FF
:1019A000DD080319082DFA015D08DF007A08E00060
:1019B0005508E2005408E1006008E4005F08E30015
:1019C000F801F901F701FA016408031DEA2C630824
:1019D0000319042D1030E5000310E10DE20DF70DA1
:1019E000FA0D64087A02031DF72C63087702031CC2
:1019F000002D6308F702031CFA036408FA020314BB
:101A0000F80DF90DE50BEC2C7908D5007808D40019
:101A10005208D40753080318530FD5071D2D530838
:101A2000D5005208D400D40DD50DD40DD50DD40D4C
:101A3000D50DD40DD50DF030D4055408F800550857
:101A4000F9007908D2007808D100DD217A08D400A5
:101A50007908D3007808D2007708D1005408D8005C
:101A60005308D7005208D6005108D500DC01DB012D
:101A7000DA018730D90055080319002EE100590812
:101A80000319002EE102031C4A2D7F30E1070318E1
:101A9000002E502D8130E102031C002E0319002E70
:101AA0006108F700F801F901FA01E0015608DF00CA
:101AB000DF175708DE005808DD001930E1005C0828
:101AC000DD020318732D0130DE020318732DDF02CF
:101AD0000318732DE0020318732DE00ADF0ADE0AF3
:101AE0005C08DD07A52D5B08DE0203188E2D013092
:101AF000DF0203188E2DE00203188E2DE00ADF0AA4
:101B00005B08DE075C08DD07031CA52DDE0A031D4C
:101B1000A52DDF0A031DA52DE00AA52D5A08803842
:101B2000DF020318A42D0130E0020318A42DE00AFF
:101B30005A088038DF075B08DE07031C822DDF0AA6
:101B4000031D822DE00A822D7A14E10BA82DB32DFE
:101B50000310DD0DDE0DDF0DE00D0310FA0DF90DA4
:101B6000F80DE20D5F2D621CBB2D0310F80CF90C73
:101B7000FA0CE20CBE2DF7030319002EE21BE72D31
:101B80000310DD0DDE0DDF0DE00D5C08DD02031836
:101B9000D32D0130DE020318D32DDF020318D32D1D
:101BA000E002031CF62D5B08DE020318DE2D013077
:101BB000DF020318DE2DE002031CF62D5A088038E0
:101BC000DF020318E72D0130E002031CF62DFA0AAC
:101BD000031DF62DF90A031DF62DF80A031DF62D37
:101BE000F70A0319002EF80CF90CFA0C5608E1005C
:101BF0005A08E106E11FFE2DF817042EF813042EF3
:101C0000F701F801F901FA018A150A163E2B560868
:101C1000DD005A08DD06DD1F122E03110310D61B4E
:101C20000314452E5608DD005908DE005508DE0273
:101C30000319202EDD1F452E0308013A8300452E8F
:101C40005A08DE005608DE0203192C2EDD1F452E31
:101C50000308013A8300452E5B08DE005708DE02C8
:101C60000319382EDD1F452E0308013A8300452E47
:101C70005C08DE005808DE020319442EDD1F452EE5
:101C80000308013A8300452E031008000C30E200DF
:101C90008A1140238A15071D592E0130E300E40004
:101CA0008A112E238A150130E700E8008A11992154
:101CB0008A15871C682E0230E3000130E4008A1187
:101CC0002E238A150130E700E8018A1199218A152F
:101CD000871D782E0330E3000130E4008A112E23A3
:101CE0008A150130E7000530E8008A1199218A152C
:101CF000081C882E0430E3000130E4008A112E23F2
:101D00008A150130E7000730E8008A1199218A1509
:101D1000B3080319D92E3708D4003608D300350884
:101D2000D2003408D1005408D8005308D700520814
:101D3000D6005108D500DC01DB015E30DA008530C9
:101D4000D90007260319C92E0130E3000230E40050
:101D50008A112E238A150130E7000430E8008A1129
:101D600099218A15023084005408D8005308D700FE
:101D70005208D6005108D5000130D9000A160028B3
:101D80000A120130E7000230E8008A1199218A1511
:101D9000D92E0130E3000230E4008A112E238A1587
:101DA000A33003178D0000308F008A1103136423C2
:101DB0008A15B3080319182FD801D7016830D60047
:101DC0008330D5003708DC003608DB003508DA0040
:101DD0003408D90007260318EF2E031DFD2E053009
:101DE000E3000130E4008A112E238A150130E70058
:101DF0000330E8008A1199218A15D801D70168308B
:101E0000D6008330D5003708DC003608DB00350803
:101E1000DA003408D90007260318102F031D182FE5
:101E2000AE08031D182FF430D5008A11DF258A155E
:101E30000830E3000230E4008A112E238A150130B5
:101E4000E7000630E8008A1199218A153008D4008D
:101E50000130D5008A11D5268A153A30E2008A1160
:101E600040238A152F08D4000130D5008A11D526C9
:101E70008A153A30E2008A1140238A152E08D400D0
:101E80000130D5008A11D5268A158A150A16892BA4
:10200000AB08031D09282C08063C031C09282D1CBD
:10201000AC0A2B0B22282D182228AC08031DAC0378
:10202000AC08031D22280430D100C830E3000A1296
:1020300085210A16D10B15282B08033C031D0030FF
:102040000430C8002B08023C031D2928AC08031DDE
:102050002D142C08F83E0318722F083E752FCC3033
:1020600003178D0000308F000A12031364230A1631
:102070000A1259260A160430D100FA30E3000A1277
:1020800085210A16D10B3D282D10AC01D230031743
:102090008D0000308F000A12031364230A16722F7A
:1020A000D33003178D0000308F000A12031364230E
:1020B0000A160A1259260A162D1C52295114031702
:1020C0008D0183168C130C1483120C080313D20099
:1020D000520F6C281930D200AB3003178D0000303E
:1020E0008F000A12031364230A160A1259260A16CD
:1020F0000430D300C830E3000A1285210A16D30B3E
:102100007A28511C3D290430D300C830E3000A125C
:1021100085210A16D30B85280230E3000130E40044
:102120000A122E230A16AC3003178D0000308F00E0
:10213000031009300313D4000A127E260A1652082F
:10214000D3001B30D40078085308DA006430DB0079
:102150005B08F8015A020318B0285A08F700BC2897
:10216000F7010830DC00DA0DF70D5B087702031881
:10217000F700F80DDC0BB3287708D300780830306F
:10218000031DC928D41CD228D419D228541A2030AF
:10219000CC28D41154125414F8077808E2000A121B
:1021A00040230A165308DA000A30DB005B08F80106
:1021B0005A020318DE285A08F700EA28F701083007
:1021C000DC00DA0DF70D5B0877020318F700F80D55
:1021D000DC0BE1287708D30078083030031DF6289F
:1021E000D419FC28541CFC28541A2030F80778080D
:1021F000E2000A1240230A163030D3075308E200E7
:102200000A1240230A162030E2000A1240230A165E
:102210000130E7000230E8000A1299210A160A127A
:10222000EE250A167808013A03191D29013A031907
:102230002029023A031923293C290130D2023C29E2
:102240000130D2073C290B08F7008B1303178D01CF
:102250000313520803178C0083168C130C1555308A
:102260008D00AA308D008C148C1834290C1177083D
:10227000831203138B04511081280A30D5000A12EF
:10228000DF250A160A30D5000A12DF250A162D109E
:10229000AC01DA3003178D0000308F000A120313EF
:1022A00064230A16722FDB3003178D0000308F0075
:1022B0000A12031364230A160A1259260A162D1C41
:1022C000062A013003178D0083168C130C14831219
:1022D0000C080313D1005108D2000A1253270A1622
:1022E0007808D1000B08F7008B13013003178D001D
:1022F0000313510803178C0083168C130C155530EB
:102300008D00AA308D008C148C1884290C1177084C
:10231000831203138B04023003178D0083168C1372
:102320000C1483120C080313D1005108D2000A12B6
:102330009E270A167808D1000B08F7008B1302308D
:1023400003178D000313510803178C0083168C1399
:102350000C1555308D00AA308D008C148C18AE29C8
:102360000C117708831203138B04013003178D00BF
:1023700083168C130C1483120C080313D100023043
:1023800003178D0083168C130C1483120C0803138F
:10239000D200E33003178D0000308F0003100B30A4
:1023A0000313D4000A127E260A165108D400013005
:1023B000D5000A12D5260A163A30E2000A12402346
:1023C0000A165208D4000130D5000A12D5260A1682
:1023D0000830D100FA30E3000A1285210A16D10B29
:1023E000EA290A30D5000A12DF250A160A30D5007C
:1023F0000A12DF250A162D10AC01EE3003178D00EE
:1024000000308F000A12031364230A16722FEF3074
:1024100003178D0000308F000A12031364230A167D
:102420000A1259260A162D1CBA2A033003178D00EA
:1024300083168C130C1483120C080313D10051085B
:10244000D2000A1253270A167808D1000B08F700A9
:102450008B13033003178D000313510803178C00EF
:1024600083168C130C1555308D00AA308D008C14FA
:102470008C18382A0C117708831203138B0404304C
:1024800003178D0083168C130C1483120C0803138E
:10249000D1005108D2000A129E270A167808D100EE
:1024A0000B08F7008B13043003178D00031351083A
:1024B00003178C0083168C130C1555308D00AA3031
:1024C0008D008C148C18622A0C1177088312031368
:1024D0008B04033003178D0083168C130C148312A6
:1024E0000C080313D100043003178D0083168C13DE
:1024F0000C1483120C080313D200F83003178D005C
:1025000000308F0003100B300313D4000A127E2614
:102510000A165108D4000130D5000A12D5260A1631
:102520003A30E2000A1240230A165208D400013061
:10253000D5000A12D5260A160830D100FA30E30079
:102540000A1285210A16D10B9E2A0A30D5000A12DA
:10255000DF250A160A30D5000A12DF250A162D10CB
:10256000AC01033003178D0001308F000A120313F2
:1025700064230A16722F043003178D0001308F0078
:102580000A12031364230A160A1259260A162D1C6E
:10259000852BB101073003178D0083168C130C14A3
:1025A00083120C080313D1005108D2000A125327DA
:1025B0000A167808D1000B08F7008B1307300317B1
:1025C0008D000313510803178C0083168C130C1510
:1025D00055308D00AA308D008C148C18ED2A0C110A
:1025E0007708831203138B04083003178D008316BA
:1025F0008C130C1483120C080313D1005108D20061
:102600000A129E270A167808D1000B08F7008B13D0
:10261000083003178D000313510803178C0083162D
:102620008C130C1555308D00AA308D008C148C182D
:10263000172B0C117708831203138B040730031731
:102640008D0083168C130C1483120C080313D10015
:10265000083003178D0083168C130C1483120C089A
:102660000313D2000C3003178D0001308F000310CC
:1026700011300313D4000A127E260A165108D40022
:102680000130D5000A12D5260A162030E2000A12BF
:1026900040230A166830E2000A1240230A162F303F
:1026A000E2000A1240230A165208D4000130D50075
:1026B0000A12D5260A161A3003178D0001308F0032
:1026C000031004300313D4000A127E260A160830C1
:1026D000D100FA30E3000A1285210A16D10B692BCA
:1026E0000A30D5000A12DF250A160A30D5000A1270
:1026F000DF250A162D10AC011D3003178D000130A7
:102700008F000A12031364230A16722F1E30031758
:102710008D0001308F000A12031364230A160A1277
:1027200059260A162D1CA72CB201053003178D005F
:1027300083168C130C1483120C080313D100510858
:10274000D2000A1253270A167808D1000B08F700A6
:102750008B13053003178D000313510803178C00EA
:1027600083168C130C1555308D00AA308D008C14F7
:102770008C18B82B0C117708831203138B040630C6
:1027800003178D0083168C130C1483120C0803138B
:10279000D1005108D2005314C43003178D0000300B
:1027A0008F000A12031364230A160A1259260A1606
:1027B0000430D400C830E3000A1285210A16D40B75
:1027C000DA2B531C252C0230E3000130E4000A12FE
:1027D0002E230A16C53003178D0000308F0003101A
:1027E00007300313D4000A127E260A165208D400BA
:1027F0000130D5000A12D5260A162030E2000A124E
:1028000040230A162030E2000A1240230A160A1258
:10281000EE250A167808013A0319152C013A031916
:102820001C2C023A0319232C242C0130D202520F03
:102830001B2C3B30D200242C0130D20752083B3CE9
:10284000031CD201242C5310E12B5208F800780805
:10285000D1000B08F7008B13063003178D0003130C
:10286000510803178C0083168C130C1555308D00FE
:10287000AA308D008C148C183B2C0C117708831215
:1028800003138B04053003178D0083168C130C146F
:1028900083120C080313D100063003178D00831632
:1028A0008C130C1483120C080313D200243003176A
:1028B0008D0001308F00031011300313D4000A1271
:1028C0007E260A165108D4000130D5000A12D526FA
:1028D0000A162030E2000A1240230A166830E2008D
:1028E0000A1240230A162F30E2000A1240230A1669
:1028F0005208D4000130D5000A12D5260A1620301D
:10290000E2000A1240230A167330E2000A12402342
:102910000A160830D100FA30E3000A1285210A169F
:10292000D10B8B2C0A30D5000A12DF250A160A308B
:10293000D5000A12DF250A162D10AC01343003171A
:102940008D0001308F000A12031364230A16722FC0
:10295000353003178D0001308F000A1203136423F2
:102960000A160A1259260A162D1C962E3008D20075
:102970000A1253270A167808B0002F08D2000A124C
:102980009E270A167808AF00393003178D000130F2
:102990008F0003100B300313D4000A127E260A1690
:1029A0003008D4000130D5000A12D5260A163A3074
:1029B000E2000A1240230A162F08D4000130D50085
:1029C0000A12D5260A160130D1005108DA000A3061
:1029D000DB005B08F8015A020318F12C5A08F700D3
:1029E000FD2CF7010830DC00DA0DF70D5B087702EB
:1029F0000318F700F80DDC0BF42C780ED200F03041
:102A0000D2055108DA000A30DB005B08F8015A02EF
:102A100003180D2D5A08F700192DF7010830DC00B6
:102A2000DA0DF70D5B0877020318F700F80DDC0BE1
:102A3000102D77085207F8007808D1000430D20032
:102A40007808D3000A128A1546200A168A11013026
:102A5000D1005108DA000A30DB005B08F8015A02A5
:102A60000318352D5A08F700412DF7010830DC0016
:102A7000DA0DF70D5B0877020318F700F80DDC0B91
:102A8000382D780ED200F030D2055108DA000A3025
:102A9000DB005B08F8015A020318512D5A08F700B1
:102AA0005D2DF7010830DC00DA0DF70D5B087702C9
:102AB0000318F700F80DDC0B542D77085207F800C7
:102AC0007808D1000530D2007808D3000A128A15A0
:102AD00046200A168A11D1015108DA000A30DB00BB
:102AE0005B08F8015A020318782D5A08F700842D64
:102AF000F7010830DC00DA0DF70D5B0877020318E8
:102B0000F700F80DDC0B7B2D780ED200F030D205EB
:102B10005108DA000A30DB005B08F8015A0203189A
:102B2000942D5A08F700A02DF7010830DC00DA0DCB
:102B3000F70D5B0877020318F700F80DDC0B972DF3
:102B400077085207F8007808D1000630D2007808DC
:102B5000D3000A128A1546200A168A113008D100BD
:102B60005108DA000A30DB005B08F8015A0203184A
:102B7000BC2D5A08F700C82DF7010830DC00DA0D2B
:102B8000F70D5B0877020318F700F80DDC0BBF2D7B
:102B9000780ED200F030D2055108DA000A30DB009E
:102BA0005B08F8015A020318D82D5A08F700E42DE3
:102BB000F7010830DC00DA0DF70D5B087702031827
:102BC000F700F80DDC0BDB2D77085207F8007808CA
:102BD000D1000230D2007808D3000A128A154620AC
:102BE0000A168A112F08D1005108DA000A30DB00DA
:102BF0005B08F8015A020318002E5A08F7000C2E41
:102C0000F7010830DC00DA0DF70D5B0877020318D6
:102C1000F700F80DDC0B032E780ED200F030D20551
:102C20005108DA000A30DB005B08F8015A02031889
:102C30001C2E5A08F700282EF7010830DC00DA0DA8
:102C4000F70D5B0877020318F700F80DDC0B1F2E59
:102C500077085207F8007808D1000130D2007808D0
:102C6000D3000A128A1546200A168A11D10151088A
:102C7000DA000A30DB005B08F8015A020318432E21
:102C80005A08F7004F2EF7010830DC00DA0DF70D77
:102C90005B0877020318F700F80DDC0B462E780E60
:102CA000D200F030D2055108DA000A30DB005B08B0
:102CB000F8015A0203185F2E5A08F7006B2EF7012D
:102CC0000830DC00DA0DF70D5B0877020318F70017
:102CD000F80DDC0B622E77085207F8007808D10057
:102CE000D2017808D3000A128A1546200A168A11E2
:102CF0000C30D100FA30E3000A1285210A16D10BFC
:102D00007A2E0A30D5000A12DF250A160A30D500BD
:102D10000A12DF250A162D10AC01443003178D006E
:102D200001308F000A12031364230A16722F4530F4
:102D300003178D0001308F000A12031364230A1653
:102D40000A1259260A162D1C722F0A30D5000A12B3
:102D5000DF250A160A30D5000A12DF250A16493087
:102D600003178D0001308F000A12031364230A1623
:102D70000630E3000130E4000A122E230A16013067
:102D8000E700E8010A1299210A16BC103C088316D4
:102D90008700831287140830D100FA30E3000A124A
:102DA00085210A16D10BCD2EBC103C088316870056
:102DB000831287100C30D100FA30E3000A1285210B
:102DC0000A16D10BDC2E0630E3000130E4000A12B3
:102DD0002E230A160130E700E8000A1299210A168C
:102DE000BC103C0883168700831287140830D1007A
:102DF000FA30E3000A1285210A16D10BF82EBC1016
:102E00003C0883168700831287100C30D100FA30FB
:102E1000E3000A1285210A16D10B072F0630E300C2
:102E20000130E4000A122E230A160130E7000530B3
:102E3000E8000A1299210A16BC113C088316870083
:102E4000831287150830D100FA30E3000A12852179
:102E50000A16D10B242FBC113C088316870083125D
:102E600087110C30D100FA30E3000A1285210A16CE
:102E7000D10B332F0630E3000130E4000A122E2379
:102E80000A160130E7000730E8000A1299210A16F5
:102E900083160810831208140830D100FA30E300BA
:102EA0000A1285210A16D10B4E2F831608108312A1
:102EB00008100C30D100FA30E3000A1285210A16FE
:102EC000D10B5B2F2D10AC010A30D5000A12DF2583
:102ED0000A164D3003178D0001308F000A120313BC
:102EE00064230A168A150A161B2B0A148A140A155B
:102EF00082072F2850285329072ABB2A862BA82C63
:022F0000972E0A
:103000000408DA005908DC00031992285808E50082
:103010005708E4005608E3005508E200E901E8011A
:103020002030E7008230E600620803198428EA00B5
:10303000660803198428EA07031825287F30EA0266
:10304000031C84280319842829288130EA070318DF
:1030500084286A08F700F801F901FA016308EE0014
:10306000EE176408ED006508EC001830EA00EB018B
:103070006C1C52286908FA07031C4428F90A031D2E
:103080004428F80A0319EB176808F907031C4B28B2
:10309000F80A0319EB176708E400E4176408F80757
:1030A0000318EB17EB0DF80CF90CFA0CEE0CED0C09
:1030B000EC0C0310EA0B37280130F70703188428BB
:1030C000F81B6928EE0DFA0DF90DF80DF703031939
:1030D0008428EE1F7A28FA0A031D7A28F90A031DAC
:1030E0007A28F80A031D7A28F80CF90CFA0CF70A6A
:1030F000031984286308EB006708EB06EB1F82289E
:10310000F8178828F8138828F701F801F901FA015F
:103110007A08D8007908D7007808D6007708D50053
:10312000DC0B06285808E5005708E4005608E300C1
:103130005508E2006208B63CE200FA016308E600C6
:10314000E3170310E30CE40CE50CFA0CF90CF80C93
:10315000F70CE20BA128E61FB828F709F809F909CE
:10316000FA09F70A0319F80A0319F90A0319FA0AFE
:103170007A08D8007908D7007808D6007708D500F3
:10318000D81FCF28DA03DA16D509D609D709D80906
:10319000D50A0319D60A0319D70A0319D80A3B30EE
:1031A000E1009A30E000CA30DF00DE010A30DC00C6
:1031B00059080319DA0A8314553084008313580818
:1031C000E5005708E4005608E3005508E2006108EE
:1031D000E9006008E8005F08E7005E08E600831881
:1031E000F4286A3084008313F701F801F901FA0129
:1031F000EA01EB01EC01ED0169086804670466046B
:10320000031932292030EE000310E20DE30DE40D26
:10321000E50DEA0DEB0DEC0DED0D69086D02031DDA
:103220001B2968086C02031D1B2967086B02031D1C
:103230001B2966086A02031C2C296608EA02670833
:10324000031C670FEB026808031C680FEC02690897
:10325000031C690FED020314F70DF80DF90DFA0DBB
:10326000EE0B04296A088000840A6B088000840A37
:103270006C088000840A6D0880007808F708031D38
:103280005429590A5C02031954295A08031956296A
:103290000F395C0203194E2903189629DA1B962967
:1032A0005A1B562920308E292030DA05DA1E68296B
:1032B000DA125908031DDA037708DA002D30E2002C
:1032C0000A128A1140230A168A155A08F700DA01F1
:1032D00059085C02031D7A297708DA002E30E200D3
:1032E0000A128A1140230A168A155A08F70020305C
:1032F000DA0500303030DA1E8E29DA125908031D43
:10330000DA037708DA002D30E2000A128A1140232E
:103310000A168A155A08F700DA013030F7077708DD
:10332000E2000A128A1140230A168A1583106108E6
:10333000E5006008E4005F08E3005E08E200E901E0
:10334000E801E7010A30E6008318A9296A30840001
:103350008313F701F801F901FA01EA01EB01EC012D
:10336000ED0169086804670466040319E729203041
:10337000EE000310E20DE30DE40DE50DEA0DEB0D9B
:10338000EC0DED0D69086D02031DD02968086C0273
:10339000031DD02967086B02031DD02966086A0245
:1033A000031CE1296608EA026708031C670FEB02A9
:1033B0006808031C680FEC026908031C690FED0222
:1033C0000314F70DF80DF90DFA0DEE0BB9296A0883
:1033D0008000840A6B088000840A6C088000840ADC
:1033E0006D0880007A08E1007908E0007808DF00C5
:1033F0007708DE00DC0BDB288A150A12C02E0308D2
:103400001F3983000330AB00AC012D10B101B201B4
:10341000B301FF30BC00C701C6010430C8008316E9
:103420001F149F141F159F1107309C0083138312D4
:10343000AD10BD01BE01BF01C001C101C201C30188
:10344000C401C501CA01C901CC01CB01BC103C08B3
:1034500083168700831287143C113C08831687006B
:103460008312071583160811831208156430E300D0
:103470000A128A1185210A168A150F30F700810178
:103480008130840083130008F0390738800064001D
:103490000008F739F719F03977048000831601081E
:1034A000C03907388100831281018B16C0308B042C
:1034B00083161F109F141F119F111F1783121F13B4
:1034C0009F1783169F1783121F140430D100AF304B
:1034D000E3000A128A1185210A168A15D10B672A80
:1034E0000A128A11852A0A168A150430D100AF30D3
:1034F000E3000A128A1185210A168A15D10B772A50
:103500000A128A11152B0A168A150230D10096303C
:10351000E3000A128A1185210A168A15D10B872A1F
:10352000533003178D0001308F000A128A110313E4
:1035300064230A168A150430D100E130E3000A1230
:103540008A1185210A168A15D10B9D2A03178D0130
:1035500083168C130C1483120C08FF3C031DCB2A1A
:103560005E308D0001308F000A128A11031364232C
:103570000A168A150A128A11BA2B0A168A150430FD
:10358000D100E130E3000A128A1185210A168A155A
:10359000D10BC12A03170313B3010A128A11DA25CA
:1035A0000A168A15F8080319DE2AB30A0A128A11C4
:1035B00087240A168A15F808031DD52AB3080319AB
:1035C000ED2A6E3003178D0001308F000A128A1128
:1035D000031364230A168A15F82A7B3003178D001B
:1035E00001308F000A128A11031364230A168A1508
:1035F0000430D100FA30E3000A128A1185210A163C
:103600008A15D10BFA2A0C30E2000A128A114023E3
:103610000A168A150A128A11EE250A168A157808E2
:10362000AB002B08033C0319272B831608118312C8
:1036300008158A1100288A150230D1009630E3005F
:103640000A128A1185210A168A15D10B1E2B0A121D
:1036500081290A163230E3000A128A1185210A16DE
:103660008A15B3080319562B0A128A11DA250A168D
:103670008A15F8080319562B0A12FA290A167A082D
:10368000B7007908B6007808B5007708B4000A12C8
:103690008A1187240A168A15F808031D3C2B32303C
:1036A000E3000A128A1185210A168A1503178D0173
:1036B00083168C130C1483120C080313D201D1004F
:1036C0000A12DD210A167A08BB007908BA007808C8
:1036D000B9007708B8003B08D8003A08D700390885
:1036E000D6003808D500DC01DB017F30DA008630F7
:1036F000D9000A1207260A16031D842BBB01BA0142
:103700004830B9008330B800AC08031D0B2D0A12F5
:10371000462E0A163008113C031C922B3008073C39
:10372000031C972B83160811831208159B2B8316F5
:103730000811831208113708D8003608D700350859
:10374000D6003408D500DC01DB011630DA00863003
:10375000D9000A1207260A16031CE82BB30803191E
:10376000E82B3708D8003608D7003508D6003408CB
:10377000D5003B08DC003A08DB003908DA003808DD
:10378000D9000A1207260A16031CCC2B3C113C0850
:1037900083168700831207153B08D8003A08D70024
:1037A0003908D6003808D5003708DC003608DB00B9
:1037B0003508DA003408D9000A1207260A16031C55
:1037C000E72B3C113C088316870083120711EE2B70
:1037D0003C113C0883168700831207110130031740
:1037E0008D0083168C130C1483120C080313300203
:1037F000031C0C2C023003178D0083168C130C1441
:1038000083120C0803132F02031C0C2CBC103C0861
:103810008316870083128714033003178D008316E5
:103820008C130C1483120C0803133002031C2A2C73
:10383000043003178D0083168C130C1483120C08AC
:1038400003132F02031C2A2CBC103C08831687008C
:1038500083128710053003178D0083168C130C1408
:1038600083120C080319B42C05308D0083168C13B9
:103870000C1483120C080313D100320830025102D9
:103880000319442C0318B32CBC113C088316870081
:1038900083128715CB08031D732CCC08031D732CD2
:1038A000D2013008D1000E30D4001030D3000A12FB
:1038B0008A11E9270A168A157908D2007808D100FA
:1038C0002F08D5003C30D6000A125C210A16780871
:1038D000D1070318D20A2E085107CB005208CC009A
:1038E0000318CC0AB32CD2013008D1000E30D4001A
:1038F0001030D3000A128A11E9270A168A157908AE
:10390000D2007808D1002F08D5003C30D6000A122A
:103910005C210A167808D1070318D20A2E08D107AD
:103920000318D20A4B085102CD005208CE004C08B1
:10393000031C4C0FCE02063003178D0083168C1328
:103940000C1483120C0803134D020319B32C031C2F
:10395000B32CBC113C088316870083128711CC015D
:10396000CB013008B200031707308D0083168C138B
:103970000C1483120C0803190C2D07308D008316CC
:103980008C130C1483120C080313D100310830027D
:1039900051020319CD2C03180B2D83160810831226
:1039A0000814C908031DE32CCA08031DE32C3008C2
:1039B000D5003C30D6000A125C210A162F08780781
:1039C000C900CA010B2D3008D5003C30D6000A12C0
:1039D0005C210A162F087807F80049087802CF0002
:1039E000D0014A08031C4A0FD002083003178D008B
:1039F00083168C130C1483120C0803134F02031943
:103A00000B2D031C0B2D8316081083120810CA01FE
:0E3A1000C9013008B100031703130A2B63002D
:02400E00363F3B
:00000001FF
;PIC16F877A
;CRC=80D5  CREATED="25-gru-18 19:05"
