:1000000019308A0038290000FF00030E8301A10087
:100010000A08A0008A010408A2007708A300780853
:10002000A4007908A5007A08A60003170D08031399
:10003000A70003170F080313A80003170C080313E6
:10004000A90003170E080313AA00831383128B1E43
:100050002B280B194C28220884002308F7002408B9
:10006000F8002508F9002608FA00270803178D0074
:100070000313280803178F000313290803178C00A4
:1000800003132A0803178E00031320088A00210E89
:100090008300FF0E7F0E09008A110A124C290A10F4
:1000A0008A100A11820728340C34013406340A10ED
:1000B0008A100A1182070E341134113415340E34AB
:1000C0000E340E34043414340A3400340E340B3439
:1000D0000E341A340E340034083414340834033423
:1000E0000434043403340434143404341434043431
:1000F0000E340E34043400340A34153400340A3417
:1001000015340034003400340034003411340A341F
:100110000E340034003400340E34153417341134E6
:100120000E3400340034083402340834003404340B
:1001300000341F3400340034003400340034003400
:1001400000340034003420102010201000003C0047
:10015000EF3500013E000C00553A723DF936753519
:10016000A012751000000C00C737643D693761109C
:1001700025183232201000000C00CD34EE3AF43055
:10018000A0123019641020000C00D332EB3A6E320A
:10019000A0123019641020008C27F03AF331A036F9
:1001A000653775000C000C2AE536F032F230F43A6F
:1001B000F23000010C008C2B6C17EF39F734653AE4
:1001C000EC32EE3461008C2A733AE13BE937EE37CA
:1001D000A0123019641D301800010C008C2B7936E8
:1001E000AE37F33BE93274366537E93000018C2ACB
:1001F000733AE13BE937EE37A0123019641D30182D
:1002000000010C000C276138EF3BE9327439FA30F9
:10021000EE3465008C2AF23A6334EF36E932EE347C
:100220006505E337A01230196410E817251832323B
:10023000A036693700010C008C256139ED34653733
:10024000E93200018C2AF23A6334EF36E932EE34B7
:100250006505E337A01230196410E817251832320B
:10026000A03900010C000C2DE533613900018C2A06
:10027000733AE13BE937EE37A0123019641D2518B7
:10028000323200010C000C2AE539F43A6A000C3ACB
:10029000E539741D00010C0064000B118A110A126B
:1002A0002B280C27EF3BE522EE32F233E932AE3752
:1002B000F2330A3B331734008C2B633D793A6137B4
:1002C000E9320A32EF36F9396C37F9316810F5390D
:1002D000F430F734653700010C2A6539ED37ED321B
:1002E00074390A3DE134EE39F430EC37F730EE3C46
:1002F0002E000C286F32EC30633D0A3A6539ED3739
:10030000ED3274392100653084008313000803192D
:1003100096290630F800F701F70B8C29F80B8B298A
:100320007B30F700F70B9229800B89290800831690
:10033000881383128813831608138312081700008A
:10034000ED018316881283128816000083160816A2
:1003500083126D10081A6D14BE163E0883168700AE
:100360008312ED10871AED143E163E08831687009F
:1003700083126D11071A6D15831688158312ED11FE
:100380008819ED1583168812831288126D08F800FB
:100390007808EC00ED01831688128312881600009D
:1003A0008316081683126D10081A6D14BE163E08C7
:1003B000831687008312ED10871AED143E163E084F
:1003C0008316870083126D11071A6D158316881521
:1003D0008312ED118819ED15831688128312881285
:1003E0006D08F8007808EB006C0EF700F030F705A8
:1003F00077086B04F8007808EB00EB1B9B29E908F1
:100400000319072A83168813831288170B2A831669
:1004100088138312881300008316081383120813AD
:10042000000083168812831288126A0EEB000F30C8
:10043000EB056B08EC006C181F2A0812202A08161E
:10044000831608128312EC18272A8712282A871687
:10045000BE123E088316870083126C19312A0712D8
:10046000322A07163E123E08831687008312EC19C3
:100470003B2A88113C2A88158316881100008812AF
:10048000831288160230F700F70B442A472A00002F
:1004900083168812831288126A080F39EB006B08E2
:1004A000EC006C18552A0812562A081683160812F2
:1004B0008312EC185D2A87125E2A8716BE123E0848
:1004C0008316870083126C19672A0712682A071699
:1004D0003E123E08831687008312EC19712A881198
:1004E000722A8815831688110000881283128816D4
:1004F0000230F700F70B7A2A7D2A00008316881253
:1005000083128812080083168813831288138316B7
:1005100008138312081383168812831288120F306F
:10052000E5008321D3015308023C031CCF2A03308A
:10053000EC006C189D2A08129E2A081683160812D1
:100540008312EC18A52A8712A62A8716BE123E0827
:100550008316870083126C19AF2A0712B02A071678
:100560003E123E08831687008312EC19B92A8811BF
:10057000BA2A8815831688110000881283128816FB
:100580000230F700F70BC22AC52A00008316881232
:10059000831288120530E5008321D30A932A0230A2
:1005A000EC006C18D52A0812D62A081683160812F1
:1005B0008312EC18DD2A8712DE2A8716BE123E0847
:1005C0008316870083126C19E72A0712E82A071698
:1005D0003E123E08831687008312EC19F12A881117
:1005E000F22A881583168811000088128312881653
:1005F0000230F700F70BFA2AFD2A00008316881252
:1006000083128812D3015308033C031C102B530898
:100610004F20D400E9015408EA009721D30A032BA4
:100620008A150A16AC29E9014030EA009721D30166
:1006300053083F3C031C292B53085720D40001309A
:10064000E9005408EA0097210230E5008321D30A2B
:10065000182B8A150A16BC29660B2F2B322B40301B
:10066000E700332BE70101306502E70767088038B0
:10067000E800E9016808EA009721080064080C3ADC
:100680000319492B063A0319512B023A0319572B28
:100690005C2BE9010130EA0097210230E50083215B
:1006A000612B0130E5000230E6002C23612BE901CB
:1006B0001030EA009721612B0130E9006408EA005C
:1006C000972108000B08D7008B13831603178C178C
:1006D0000C140000000083120313D71B8B170317A1
:1006E0000C087F390319B62B0313D70003170D0825
:1006F0000313D80003170F080313D9005708E400A9
:100700003E23580803178D000313590803178F0061
:1007100003130B08DA008B13831603178C170C14C2
:100720000000000083120313DA1B8B1703170C0D54
:100730000E0D7F390319B62B0313D70003170D08CD
:100740000313D80003170F080313D9005708E40058
:100750003E23580803178D000313590803178F0011
:100760008D0A03198F0A0313622B03170313080062
:100770000B08F7008B1303178D011A308C008316BA
:100780008C130C1555308D00AA308D008C148C18EC
:10079000C72B0C117708831203138B040B08F70087
:1007A0008B13013003178D0007308C0083168C13D8
:1007B0000C1555308D00AA308D008C148C18DE2B52
:1007C0000C117708831203138B040B08F7008B13AB
:1007D000023003178D0001308C0083168C130C152A
:1007E00055308D00AA308D008C148C18F52B0C110F
:1007F0007708831203138B040B08F7008B13033065
:1008000003178D0012308C0083168C130C15553095
:100810008D00AA308D008C148C180C2C0C117708CC
:10082000831203138B040B08F7008B130430031798
:100830008D0001308C0083168C130C1555308D0003
:10084000AA308D008C148C18232C0C11770883127D
:1008500003138B040B08F7008B13053003178D006F
:100860008C0183168C130C1555308D00AA308D0029
:100870008C148C18392C0C117708831203138B04F9
:100880000B08F7008B13063003178D008C018316BD
:100890008C130C1555308D00AA308D008C148C18DB
:1008A0004F2C0C117708831203138B040B08F700ED
:1008B0008B13073003178D008C0183168C130C15D6
:1008C00055308D00AA308D008C148C18652C0C11BD
:1008D0007708831203138B040B08F7008B1308307F
:1008E00003178D008C0183168C130C1555308D0069
:1008F000AA308D008C148C187B2C0C117708831275
:1009000003138B048A150A16F6290130D500D60088
:10091000D7015811D4015408073C031C962C4030D1
:100920005407840083138001D40A8B2C831686110C
:10093000831286110230E200EF30E3000330E3025D
:10094000031CAC2C63308400831300080319AC2C07
:10095000AA2CAA2C800BA92CE20B9C2C83168611A6
:10096000831286154230F700F70BB42C0000831673
:10097000861583126110861961140230E200D330AB
:10098000E3000330E302031CCF2C633084008313A5
:1009900000080319CF2CCD2CCD2C800BCC2CE20BD6
:1009A000BF2C003061180130F800D8107818D81426
:1009B000D818DC2CAD1CE02CBF010030F800D72D7E
:1009C000F030E400E5016508073C031C112D6408C4
:1009D000E6006508F8000319F12C0310E60CF80B8B
:1009E000ED2C0130E6056608E700831686118312B8
:1009F00086110230F700F70BFB2CFE2C0000E708F5
:100A00000319062D8316861183128615A630F7006A
:100A1000F70B082D00008316861183128615E50A50
:100A2000E32CAE30F700F70B132D162DD401D301B4
:100A300083168611831286110230F700F70B1E2DE4
:100A4000212D0000831686150730F700F70B262DA1
:100A5000292D000086158312651086196514003053
:100A600065180130F800F8080319382D0230D3005A
:100A7000C730F700F70B3A2D3D2D831686118312F0
:100A800086110230F700F70B432D462D0000831628
:100A900086150730F700F70B4B2D4E2D00008615FD
:100AA0008312651086196514003065180130F8004E
:100AB000F808031D5314C730F700F70B5D2D602DA8
:100AC0005308033C031D662DC62DC22DD308031900
:100AD000702D58100310530CF80078185814872DF7
:100AE0003F08560203187E2D5810403054078400EA
:100AF000831300085505031D5814832D58103F0813
:100B00005602031958145818872D5608D700581C38
:100B1000912D403054078400831300085504800051
:100B2000992D40305407840083135508FF3A00057F
:100B30008000003058180130D9005908E7008316AA
:100B40008611831286110230F700F70BA52DA82D10
:100B50000000E7080319B02D83168611831286154D
:100B6000A630F700F70BB22D000083168611831212
:100B70008615D60A0310D50DD508031DC22DD40A3B
:100B80000130D5005408073C0318172D5608403C87
:100B9000031CCC2DBF01D32D5708BF00AD10BF08DB
:100BA0000319AD145815003058190130F800080029
:100BB000BF01AD10852478080800831688108312C1
:100BC00088145708E5008321831688108312881043
:100BD0000530E500832108000830F8001F08C739F8
:100BE00078049F000130E50083211F151F19F62DA1
:100BF00083161E088312D6000330E50083215608B1
:100C0000093C031C112ECA010230D700FA30E5005E
:100C10008321D70B062E0A30D700DD250130F800DE
:100C2000562E5608E63C03183E2E560F182E3E2E22
:100C30004A08023C031D2B2E0130CA070230D700A0
:100C4000FA30E5008321D70B202E0A30D700DD25AE
:100C50000230F800562E4A08023C031C3B2E01309D
:100C6000CA070230D700FA30E5008321D70B332EB4
:100C70000330F800562E0330F800562E56088C3CF0
:100C80000318542E5608A43C031C542E0A30D700D7
:100C9000DD25CA010230D700FA30E5008321D70BE9
:100CA0004C2E0030F800562E0330F80008000130BA
:100CB000E5000230E6002C23A73003178D0000303A
:100CC0008F00031362230830E5000230E6002C2376
:100CD000A83003178D0000308F00031362231030FB
:100CE000E5000230E6002C23AA3003178D00003007
:100CF0008F000313622308000B08D7008B138316A1
:100D000003178C170C140000000083120313D71B69
:100D10008B170318B32E03170C087F390313D70062
:100D200003170D080313D80003170F080313D90086
:100D30005708E4003E23580803178D000313590891
:100D400003178F0003130B08DA008B1383160317A6
:100D50008C170C140000000083120313DA1B8B178E
:100D6000D60BB32ED22E03170C0D0E0D7F390313A5
:100D7000D70003170D080313D80003170F08031338
:100D8000D9005708E4003E23580803178D000313C9
:100D9000590803178F008D0A03198F0A03100313D4
:100DA000D60B7C2E08002030571E3030D800560855
:100DB000F700F71FE32EF709F70A7708D6002D3062
:100DC000D800D717571478085608DC006430DD00C7
:100DD0005D08F8015C020318F02E5C08F700FC2E99
:100DE000F7010830DE00DC0DF70D5D08770203180F
:100DF000F700F80DDE0BF32E7708D60030307807B9
:100E0000D9005608DC000A30DD005D08F8015C02FC
:100E100003180D2F5C08F700192FF7010830DE00CA
:100E2000DC0DF70D5D0877020318F700F80DDE0BF7
:100E3000102F30307707DB0030307807DA005808A1
:100E4000F700303059020319292FD714D71B571533
:100E50003D2F57193D2F5808D900D718342F30305F
:100E60005A020319372F5714D71BD7143D2F031DD0
:100E70005714031D3D2F5908DA005719442FD7186E
:100E8000472F57184A2F4D2F5808E4003E23590882
:100E9000E4003E235A08E4003E235B08E4003E23BE
:100EA00008005514B33003178D0000308F00031372
:100EB000622357260430D600C830E5008321D60BC4
:100EC0005C2F551C992F0230E5000130E6002C23E1
:100ED000B43003178D0000308F0003100830031367
:100EE000D6007C265408D6000130D700D326203007
:100EF000E4003E232030E4003E23EC257808013A4C
:100F00000319892F013A0319902F023A0319972FD9
:100F1000982F0130D402540F8F2F1830D400982FFF
:100F20000130D4075408183C031CD401982F5510E5
:100F3000612F5408F80008000830F8000430F7006A
:100F4000F70BA02F8610831686100330F700F70BDF
:100F5000A72F8312D80D0610031CB12F8316061479
:100F600083120318B62F8316061083128316861475
:100F70008312861CB92FF80B9E2F0430F700F70B55
:100F8000BF2F861083168610000006140330F7006A
:100F9000F70BC82F0330F700F70BCC2F8614831202
:100FA000861CD02FF8010330F700F70BD52F061859
:100FB0007814861083168610831206108316061086
:100FC000831208008E30F7005408F8005308F90027
:100FD000FA01F808031DF62F7908F800F901083026
:100FE000F702F808031DF62FF701FE2F0310F81B78
:0E0FF000FD2FF90DF80DF703F62FF81308008A
:10100000831606140430F700F70B04288614033007
:10101000F700F70B09288312061083160610043018
:10102000F700F70B11288312861083168610D03034
:101030008312D8008A119C278A155408D8008A1177
:101040009C278A155508D8008A119C278A15831673
:101050000610000086148312861C2C280430F7002A
:10106000F70B302833280000831606140430F700ED
:10107000F70B382806140430F700F70B3D288614C8
:101080000330F700F70B4228831206108316061070
:101090000430F700F70B4A28831286108316861057
:1010A000D0308312D8008A119C278A1578085610F0
:1010B00078185614D030D700561862285708043CC8
:1010C000031C8728831606140430F700F70B6628E4
:1010D00086140330F700F70B6B288312861C6E28EA
:1010E0000610831606100430F700F70B75288312DC
:1010F000861083168610D0308312D8008A119C2760
:101100008A157808561078185614D70A5C280800F3
:10111000831606140430F700F70B8C28861403306E
:10112000F700F70B91288312861C9428061083166B
:1011300006100430F700F70B9B28831286108316E5
:101140008610D0308312D8008A119C278A15530844
:10115000D8008A119C278A15831606140430F700DC
:10116000F70BB02886140330F700F70BB52883126D
:10117000861CB8280610831606100430F700F70BFB
:10118000BF288312861083168610D1308312D800B0
:101190008A119C278A15F7010830D6007708D700F6
:1011A000831606140330F700F70BD4288614831235
:1011B000861CD82806180314061C0310F80D0430EA
:1011C000F700F70BE1288316861083128610D60BE2
:1011D000D028831606140330F700F70BED2883128E
:1011E000061057080319F72883160610831200000B
:1011F000831686148312861CFB280430F700F70B35
:10120000FF288610831686100330F700F70B062997
:10121000831206108316061078088312D4008316F2
:101220000610000086148312861C14290430F7006F
:10123000F70B18291B290000831606140430F70049
:10124000F70B202983125408F8000800F701F80171
:10125000570803105818F707F70CF80CD818F707B9
:10126000F70CF80C5819F707F70CF80CD819F70712
:10127000F70CF80C581AF707F70CF80CD81AF70700
:10128000F70CF80C581BF707F70CF80CD81BF707EE
:10129000F70CF80C0800D30188207808D300530815
:1012A000D400540EF7000F30F7057708D600D700AA
:1012B0000A30D80026217808D50054080F3978075D
:1012C000F8007808AE000130E5008A1183218A1504
:1012D0000130D30088207808D3005308D400540E7E
:1012E000F7000F30F7057708D600D7000A30D8008E
:1012F00026217808D50054080F397807F8007808B7
:10130000AF000130E5008A1183218A150230D30035
:1013100088207808D3005308D400540EF7000F300B
:10132000F7057708D600D7000A30D80026217808BC
:10133000D50054080F397807F8007808B00001305C
:10134000E5008A1183218A158A150A16762A8316E2
:101350008611831286110230E200EF30E300033081
:10136000E302031CBD2963308400831300080319C2
:10137000BD29BB29BB29800BBA29E20BAD298316F5
:101380008611831286154230F700F70BC52900003D
:101390008316861583126110861961140230E200EB
:1013A000D330E3000330E302031CE0296330840000
:1013B000831300080319E029DE29DE29800BDD29CB
:1013C000E20BD029003061180130F8005530E100FF
:1013D0006108553C031D662A5530E400E5016508A7
:1013E000073C031C1D2A6408E6006508F800031981
:1013F000FD290310E60CF80BF9290130E605660813
:10140000E70083168611831286110230F700F70B6E
:10141000072A0A2A0000E7080319122A83168611F0
:1014200083128615A630F700F70B142A00008316E6
:10143000861183128615E50AEF29AE30F700F70B07
:101440001F2A222AE2016208073C031C652A403059
:101450006207840083130008E3006308E400E501E9
:101460006508073C031C5E2A6408E6006508F8006E
:1014700003193E2A0310E60CF80B3A2A0130E60560
:101480006608E70083168611831286110230F70082
:10149000F70B482A4B2A0000E7080319532A831642
:1014A000861183128615A630F700F70B552A000027
:1014B0008316861183128615E50A302AAE30F700AE
:1014C000F70B602A632AE20A232A9C2ACC30E40024
:1014D000E5016508073C031C972A6408E6006508D7
:1014E000F8000319772A0310E60CF80B732A013071
:1014F000E6056608E700831686118312861102301E
:10150000F700F70B812A842A0000E70803198C2AC8
:101510008316861183128615A630F700F70B8E2AE4
:1015200000008316861183128615E50A692AAE30FB
:10153000F700F70B992A9C2A8316861183128615C9
:101540004430E400E5016508073C031CD12A640827
:10155000E6006508F8000319B12A0310E60CF80B41
:10156000AD2A0130E6056608E7008316861183126E
:1015700086110230F700F70BBB2ABE2A0000E708ED
:101580000319C62A8316861183128615A630F70022
:10159000F70BC82A00008316861183128615E50A08
:1015A000A32AAE30F700F70BD32AD62A0330E10086
:1015B000FA30E5008A1183218A15E10BD82A8316B7
:1015C0008611831286110230E200EF30E30003300F
:1015D000E302031CF52A6330840083130008031917
:1015E000F52AF32AF32A800BF22AE20BE52A831666
:1015F0008611831286154230F700F70BFD2A000092
:101600008316861583126110861961140230E20078
:10161000D330E3000330E302031C182B6330840053
:10162000831300080319182B162B162B800B152B70
:10163000E20B082B003061180130F8005530E10052
:101640006108553C031D9E2B5530E400E5016508FB
:10165000073C031C552B6408E6006508F8000319D5
:10166000352B0310E60CF80B312B0130E60566082C
:10167000E70083168611831286110230F700F70BFC
:101680003F2B422B0000E70803194A2B83168611D3
:1016900083128615A630F700F70B4C2B000083163B
:1016A000861183128615E50A272BAE30F700F70B5B
:1016B000572B5A2BE2016208073C031C9D2B40303C
:1016C0006207840083130008E3006308E400E50177
:1016D0006508073C031C962B6408E6006508F800C3
:1016E0000319762B0310E60CF80B722B0130E6057C
:1016F0006608E70083168611831286110230F70010
:10170000F70B802B832B0000E70803198B2B831624
:10171000861183128615A630F700F70B8D2B00007B
:101720008316861183128615E50A682BAE30F70002
:10173000F70B982B9B2BE20A5B2BD42BCC30E400CD
:10174000E5016508073C031CCF2B6408E60065082B
:10175000F8000319AF2B0310E60CF80BAB2B01308C
:10176000E6056608E70083168611831286110230AB
:10177000F700F70BB92BBC2B0000E7080319C42BAB
:101780008316861183128615A630F700F70BC62B39
:1017900000008316861183128615E50AA12BAE3050
:1017A000F700F70BD12BD42BBE30E400E501650820
:1017B000073C031C052C6408E6006508F8000319C3
:1017C000E52B0310E60CF80BE12B0130E60566086B
:1017D000E70083168611831286110230F700F70B9B
:1017E000EF2BF22B0000E7080319FA2B8316861162
:1017F00083128615A630F700F70BFC2B000083162A
:10180000861183128615E50AD72BAE30F700F70B49
:10181000072C0A2CD3015308083C031C5B2C5830BE
:101820005307F800FA010318FA0A7808E1007A0869
:10183000E200E401E3016308073C031C502C83161B
:101840008611831286110230F700F70B252C282C05
:101850000000831686150730F700F70B2D2C302C6F
:10186000000086158312651086196514003065180E
:101870000130F800F8080319492C0130F70063081B
:10188000F8000319472C0310F70DF80B432C7708C9
:10189000E404C730F700F70B4B2C4E2CE30A1B2C4B
:1018A0006408F800610884008313621883177808BD
:1018B0008000D30A0B2CD501D401E2015908D500D0
:1018C000D401FA015808D4047A08D5044008103C21
:1018D000031DBC2C0310D50CD40C5408D500D40126
:1018E0004030D4020030031C0130D5025E085F0294
:1018F000D600D7015608D700D601DF080319B52C4A
:10190000FA015F08E1007A08E2005708E40056088F
:10191000E3006208E6006108E500F801F901F7015B
:10192000FA016608031D972C65080319B12C1030C5
:10193000E7000310E30DE40DF70DFA0D66087A02D7
:10194000031DA42C65087702031CAD2C6508F70263
:10195000031CFA036608FA020314F80DF90DE70BED
:10196000992C7908D7007808D6005408D60755086E
:101970000318550FD707CA2C5508D7005408D600AE
:10198000D60DD70DD60DD70DD60DD70DD60DD70D3B
:10199000F030D6055608F8005708F9007908D40049
:1019A0007808D3008A11E2278A157A08D6007908C8
:1019B000D5007808D4007708D3005608DA00550817
:1019C000D9005408D8005308D700DE01DD01DC013E
:1019D0008730DB0057080319AF2DE3005B080319BC
:1019E000AF2DE302031CF92C7F30E3070318AF2D62
:1019F000FF2C8130E302031CAF2D0319AF2D6308C8
:101A0000F700F801F901FA01E2015808E100E117D5
:101A10005908E0005A08DF001930E3005E08DF02D1
:101A20000318222D0130E0020318222DE1020318D1
:101A3000222DE2020318222DE20AE10AE00A5E08E2
:101A4000DF07542D5D08E00203183D2D0130E1024F
:101A500003183D2DE20203183D2DE20AE10A5D085C
:101A6000E0075E08DF07031C542DE00A031D542D18
:101A7000E10A031D542DE20A542D5C088038E1026E
:101A80000318532D0130E2020318532DE20A5C08BB
:101A90008038E1075D08E007031C312DE10A031DD2
:101AA000312DE20A312D7A14E30B572D622D0310EC
:101AB000DF0DE00DE10DE20D0310FA0DF90DF80D4B
:101AC000E40D0E2D641C6A2D0310F80CF90CFA0CB1
:101AD000E40C6D2DF7030319AF2DE41B962D0310B5
:101AE000DF0DE00DE10DE20D5E08DF020318822D2F
:101AF0000130E0020318822DE1020318822DE20278
:101B0000031CA52D5D08E00203188D2D0130E102B4
:101B100003188D2DE202031CA52D5C088038E1021C
:101B20000318962D0130E202031CA52DFA0A031DAD
:101B3000A52DF90A031DA52DF80A031DA52DF70AE9
:101B40000319AF2DF80CF90CFA0C5808E3005C08E7
:101B5000E306E31FAD2DF817B32DF813B32DF701EE
:101B6000F801F901FA018A150A168B2A5808DF00D4
:101B70005C08DF06DF1FC12D03110310D81B0314FF
:101B8000F42D5808DF005B08E0005708E002031955
:101B9000CF2DDF1FF42D0308013A8300F42D5C08DC
:101BA000E0005808E0020319DB2DDF1FF42D0308C5
:101BB000013A8300F42D5D08E0005908E0020319A2
:101BC000E72DDF1FF42D0308013A8300F42D5E0892
:101BD000E0005A08E0020319F32DDF1FF42D03087B
:101BE000013A8300F42D031008000408DC005B08B0
:101BF000DE000319872E5A08E7005908E600580846
:101C0000E5005708E400EB01EA012030E9008230EA
:101C1000E80064080319792EEC0068080319792E8E
:101C2000EC0703181A2E7F30EC02031C792E0319DF
:101C3000792E1E2E8130EC070318792E6C08F700E0
:101C4000F801F901FA016508F000F0176608EF00E5
:101C50006708EE001830EC00ED016E1C472E6B0893
:101C6000FA07031C392EF90A031D392EF80A031945
:101C7000ED176A08F907031C402EF80A0319ED173F
:101C80006908E600E6176608F8070318ED17ED0D7A
:101C9000F80CF90CFA0CF00CEF0CEE0C0310EC0B3A
:101CA0002C2E0130F7070318792EF81B5E2EF00D4D
:101CB000FA0DF90DF80DF7030319792EF01F6F2EA9
:101CC000FA0A031D6F2EF90A031D6F2EF80A031D71
:101CD0006F2EF80CF90CFA0CF70A0319792E650827
:101CE000ED006908ED06ED1F772EF8177D2EF8132D
:101CF0007D2EF701F801F901FA017A08DA00790876
:101D0000D9007808D8007708D700DE0BFB2D5A08D9
:101D1000E7005908E6005808E5005708E4006408A1
:101D2000B63CE400FA016508E800E5170310E50C8D
:101D3000E60CE70CFA0CF90CF80CF70CE40B962EF9
:101D4000E81FAD2EF709F809F909FA09F70A03198E
:101D5000F80A0319F90A0319FA0A7A08DA00790865
:101D6000D9007808D8007708D700DA1FC42EDC0322
:101D7000DC16D709D809D909DA09D70A0319D80A0C
:101D80000319D90A0319DA0A3B30E3009A30E2005A
:101D9000CA30E100E0010A30DE005B080319DC0A0A
:101DA00083145730840083135A08E7005908E6006B
:101DB0005808E5005708E4006308EB006208EA00F1
:101DC0006108E9006008E8008318E92E6C3084009F
:101DD0008313F701F801F901FA01EC01ED01EE01BD
:101DE000EF016B086A04690468040319272F203087
:101DF000F0000310E40DE50DE60DE70DEC0DED0D23
:101E0000EE0DEF0D6B086F02031D102F6A086E02B6
:101E1000031D102F69086D02031D102F68086C0246
:101E2000031C212F6808EC026908031C690FED02EE
:101E30006A08031C6A0FEE026B08031C6B0FEF02AB
:101E40000314F70DF80DF90DFA0DF00BF92E6C08CF
:101E50008000840A6D088000840A6E088000840A6D
:101E60006F0880007808F708031D492F5B0A5E029F
:101E70000319492F5C0803194B2F0F395E02031910
:101E8000432F0318832FDC1B832F5C1B4B2F203029
:101E90007D2F2030DC05DC1E5B2FDC125B08031D70
:101EA000DC037708DC002D30E4008A113E238A151C
:101EB0005C08F700DC015B085E02031D6B2F7708EE
:101EC000DC002E30E4008A113E238A155C08F700FE
:101ED0002030DC0500303030DC1E7D2FDC125B084A
:101EE000031DDC037708DC002D30E4008A113E235B
:101EF0008A155C08F700DC013030F7077708E4004A
:101F00008A113E238A1583106308E7006208E60001
:101F10006108E5006008E400EB01EA01E9010A302C
:101F2000E8008318962F6C3084008313F701F801C2
:101F3000F901FA01EC01ED01EE01EF016B086A0411
:101F4000690468040319D42F2030F0000310E40D55
:101F5000E50DE60DE70DEC0DED0DEE0DEF0D6B084B
:101F60006F02031DBD2F6A086E02031DBD2F690895
:101F70006D02031DBD2F68086C02031CCE2F68087C
:101F8000EC026908031C690FED026A08031C6A0F62
:101F9000EE026B08031C6B0FEF020314F70DF80D34
:101FA000F90DFA0DF00BA62F6C088000840A6D085D
:101FB0008000840A6E088000840A6F0880007A0816
:101FC000E3007908E2007808E1007708E000DE0B22
:081FD000D02E8A150A16922892
:10200000AB08031D09282C08063C031C09282D1CBD
:10201000AC0A2B0B22282D182228AC08031DAC0378
:10202000AC08031D22280430D300C830E5000A1292
:1020300083210A16D30B15282B08033C031D0030FF
:102040000430CA002B08023C031D2928AC08031DDC
:102050002D142C08F83E0318C22F083EC52FCC3093
:1020600003178D0000308F000A12031362230A1633
:102070000A1257260A160430D300FA30E5000A1275
:1020800083210A16D30B3D282D10AC01D230031743
:102090008D0000308F000A12031362230A16C22F2C
:1020A000D33003178D0000308F000A120313622310
:1020B0000A160A1257260A162D1C52295314031702
:1020C0008D0183168C130C1483120C080313D40097
:1020D000540F6C281930D400AB3003178D0000303A
:1020E0008F000A12031362230A160A1257260A16D1
:1020F0000430D500C830E5000A1283210A16D50B3A
:102100007A28531C3D290430D500C830E5000A1256
:1021100083210A16D50B85280230E5000130E60040
:102120000A122C230A16AC3003178D0000308F00E2
:10213000031009300313D6000A127C260A1654082D
:10214000D5001B30D60078085508DC006430DD006F
:102150005D08F8015C020318B0285C08F700BC2891
:10216000F7010830DE00DC0DF70D5D08770203187B
:10217000F700F80DDE0BB3287708D500780830306B
:10218000031DC928D61CD228D619D228561A2030A9
:10219000CC28D61156125614F8077808E4000A1213
:1021A0003E230A165508DC000A30DD005D08F80100
:1021B0005C020318DE285C08F700EA28F701083003
:1021C000DE00DC0DF70D5D0877020318F700F80D4F
:1021D000DE0BE1287708D50078083030031DF6289B
:1021E000D619FC28561CFC28561A2030F807780807
:1021F000E4000A123E230A163030D5075508E400E1
:102200000A123E230A162030E4000A123E230A1660
:102210000130E9000230EA000A1297210A160A1278
:10222000EC250A167808013A03191D29013A031909
:102230002029023A031923293C290130D4023C29E0
:102240000130D4073C290B08F7008B1303178D01CD
:102250000313540803178C0083168C130C15553088
:102260008D00AA308D008C148C1834290C1177083D
:10227000831203138B04531081280A30D7000A12EB
:10228000DD250A160A30D7000A12DD250A162D10A0
:10229000AC01DA3003178D0000308F000A120313EF
:1022A00062230A16C22FDB3003178D0000308F0027
:1022B0000A12031362230A160A1257260A162D1C45
:1022C000D529013003178D0083168C130C1483124B
:1022D0000C080313D3005308D4000A1251270A161E
:1022E0007808D3000B08F7008B13013003178D001B
:1022F0000313530803178C0083168C130C155530E9
:102300008D00AA308D008C148C1884290C1177084C
:10231000831203138B04013003178D0083168C1373
:102320000C1483120C080313B100E33003178D0063
:1023300000308F0003100B300313D6000A127C26E6
:102340000A163108D6000130D7000A12D3260A1621
:102350003A30E4000A123E230A163030E4000A1232
:102360003E230A163030E4000A123E230A160830D3
:10237000D300FA30E5000A1283210A16D30BB929DB
:102380000A30D7000A12DD250A160A30D7000A12D1
:10239000DD250A162D10AC01ED3003178D0000303D
:1023A0008F000A12031362230A16C22FEE3003179E
:1023B0008D0000308F000A12031362230A160A12DE
:1023C00057260A162D1C582A033003178D00831632
:1023D0008C130C1483120C080313D3005308D4007D
:1023E0000A1251270A167808D3000B08F7008B133E
:1023F000033003178D000313530803178C00831653
:102400008C130C1555308D00AA308D008C148C184F
:10241000072A0C117708831203138B040330031768
:102420008D0083168C130C1483120C080313B20056
:10243000F73003178D0000308F0003100B300313AB
:10244000D6000A127C260A163208D6000130D700C0
:102450000A12D3260A163A30E4000A123E230A165C
:102460003030E4000A123E230A163030E4000A122B
:102470003E230A160830D300FA30E5000A12832101
:102480000A16D30B3C2A0A30D7000A12DD250A1699
:102490000A30D7000A12DD250A162D10AC010130D2
:1024A00003178D0001308F000A12031362230A16EE
:1024B000C22F023003178D0001308F000A12031360
:1024C00062230A160A1257260A162D1C7C2BB3010A
:1024D000073003178D0083168C130C1483120C081D
:1024E0000313D3005308D4000A1251270A167808A0
:1024F000D3000B08F7008B13073003178D0003136D
:10250000530803178C0083168C130C1555308D005F
:10251000AA308D008C148C188B2A0C11770883122A
:1025200003138B04083003178D0083168C130C14CF
:1025300083120C080313D3005308D4005514BC3085
:1025400003178D0000308F000A12031362230A164E
:102550000A1257260A160430D600C830E5000A12BF
:1025600083210A16D60BAD2A551CF82A0230E50045
:102570000130E6000A122C230A16BD3003178D0025
:1025800000308F00031007300313D6000A127C2698
:102590000A165408D6000130D7000A12D3260A16AC
:1025A0002030E4000A123E230A162030E4000A120A
:1025B0003E230A160A12EC250A167808013A031976
:1025C000E82A013A0319EF2A023A0319F62AF72AF0
:1025D0000130D402540FEE2A3B30D400F72A0130E8
:1025E000D40754083B3C031CD401F72A5510B42AE5
:1025F0005408F8007808D3000B08F7008B13083054
:1026000003178D000313530803178C0083168C13D4
:102610000C1555308D00AA308D008C148C180E2BA3
:102620000C117708831203138B04073003178D00F6
:1026300083168C130C1483120C080313D300083078
:1026400003178D0083168C130C1483120C080313CC
:10265000D4000A3003178D0001308F0003101130B1
:102660000313D6000A127C260A165308D60001303E
:10267000D7000A12D3260A162030E4000A123E239D
:102680000A166830E4000A123E230A162F30E400CE
:102690000A123E230A165408D6000130D7000A1247
:1026A000D3260A16183003178D0001308F0003104F
:1026B00004300313D6000A127C260A160830D30011
:1026C000FA30E5000A1283210A16D30B602B0A3078
:1026D000D7000A12DD250A160A30D7000A12DD25B6
:1026E0000A162D10AC011B3003178D0001308F002E
:1026F0000A12031362230A16C22F1C3003178D001F
:1027000001308F000A12031362230A160A12572699
:102710000A162D1C9E2CB401053003178D0083165C
:102720008C130C1483120C080313D3005308D40029
:102730000A1251270A167808D3000B08F7008B13EA
:10274000053003178D000313530803178C008316FD
:102750008C130C1555308D00AA308D008C148C18FC
:10276000AF2B0C117708831203138B040630031769
:102770008D0083168C130C1483120C080313D300E2
:102780005308D4005514C43003178D0000308F0057
:102790000A12031362230A160A1257260A16043075
:1027A000D600C830E5000A1283210A16D60BD12BB9
:1027B000551C1C2C0230E5000130E6000A122C23C7
:1027C0000A16C53003178D0000308F000310073044
:1027D0000313D6000A127C260A165408D6000130CC
:1027E000D7000A12D3260A162030E4000A123E232C
:1027F0000A162030E4000A123E230A160A12EC25BB
:102800000A167808013A03190C2C013A0319132C03
:10281000023A03191A2C1B2C0130D402540F122C2B
:102820003B30D4001B2C0130D40754083B3C031C24
:10283000D4011B2C5510D82B5408F8007808D3006D
:102840000B08F7008B13063003178D000313530892
:1028500003178C0083168C130C1555308D00AA308D
:102860008D008C148C18322C0C11770883120313F2
:102870008B04053003178D0083168C130C14831200
:102880000C080313D300063003178D0083168C1336
:102890000C1483120C080313D400223003178D008C
:1028A00001308F00031011300313D6000A127C266A
:1028B0000A165308D6000130D7000A12D3260A168A
:1028C0002030E4000A123E230A166830E4000A129F
:1028D0003E230A162F30E4000A123E230A1654083B
:1028E000D6000130D7000A12D3260A162030E400A1
:1028F0000A123E230A167330E4000A123E230A1617
:102900000830D300FA30E5000A1283210A16D30BEF
:10291000822C0A30D7000A12DD250A160A30D700A9
:102920000A12DD250A162D10AC01323003178D0076
:1029300001308F000A12031362230A16C22F3330AC
:1029400003178D0001308F000A12031362230A1649
:102950000A1257260A162D1CE62E3008D4000A1239
:1029600051270A167808B0002F08D4005514BC303F
:1029700003178D0000308F000A12031362230A161A
:102980000A1257260A160430D600C830E5000A128B
:1029900083210A16D60BC52C551C102D0230E500DC
:1029A0000130E6000A122C230A16BD3003178D00F1
:1029B00000308F00031007300313D6000A127C2664
:1029C0000A165408D6000130D7000A12D3260A1678
:1029D0002030E4000A123E230A162030E4000A12D6
:1029E0003E230A160A12EC250A167808013A031942
:1029F000002D013A0319072D023A03190E2D0F2D50
:102A00000130D402540F062D3B30D4000F2D01307D
:102A1000D40754083B3C031CD4010F2D5510CC2C7B
:102A20005408F8007808AF00373003178D000130E4
:102A30008F0003100B300313D6000A127C260A16EF
:102A40003008D6000130D7000A12D3260A163A30D1
:102A5000E4000A123E230A162F08D6000130D700E0
:102A60000A12D3260A160130D3005308DC000A30BC
:102A7000DD005D08F8015C020318412D5C08F700D9
:102A80004D2DF7010830DE00DC0DF70D5D087702F3
:102A90000318F700F80DDE0B442D780ED400F0304B
:102AA000D4055308DC000A30DD005D08F8015C0243
:102AB00003185D2D5C08F700692DF7010830DE0072
:102AC000DC0DF70D5D0877020318F700F80DDE0B3B
:102AD000602D77085407F8007808D3000430D4003C
:102AE0007808D5000A128A1500200A168A110130CA
:102AF000D3005308DC000A30DD005D08F8015C02F9
:102B00000318852D5C08F700912DF7010830DE00D1
:102B1000DC0DF70D5D0877020318F700F80DDE0BEA
:102B2000882D780ED400F030D4055308DC000A302C
:102B3000DD005D08F8015C020318A12D5C08F700B8
:102B4000AD2DF7010830DE00DC0DF70D5D087702D2
:102B50000318F700F80DDE0BA42D77085407F800D2
:102B60007808D3000530D4007808D5000A128A15F9
:102B700000200A168A11D3015308DC000A30DD0058
:102B80005D08F8015C020318C82D5C08F700D42D1D
:102B9000F7010830DE00DC0DF70D5D087702031841
:102BA000F700F80DDE0BCB2D780ED400F030D405F5
:102BB0005308DC000A30DD005D08F8015C020318F0
:102BC000E42D5C08F700F02DF7010830DE00DC0D85
:102BD000F70D5D0877020318F700F80DDE0BE72DFF
:102BE00077085407F8007808D3000630D400780836
:102BF000D5000A128A1500200A168A113008D3005F
:102C00005308DC000A30DD005D08F8015C0203189F
:102C10000C2E5C08F700182EF7010830DE00DC0DE2
:102C2000F70D5D0877020318F700F80DDE0B0F2E85
:102C3000780ED400F030D4055308DC000A30DD00F3
:102C40005D08F8015C020318282E5C08F700342E9A
:102C5000F7010830DE00DC0DF70D5D087702031880
:102C6000F700F80DDE0B2B2E77085407F8007808D4
:102C7000D3000230D4007808D5000A128A1500204B
:102C80000A168A112F08D3005308DC000A30DD0031
:102C90005D08F8015C020318502E5C08F7005C2EFA
:102CA000F7010830DE00DC0DF70D5D087702031830
:102CB000F700F80DDE0B532E780ED400F030D4055B
:102CC0005308DC000A30DD005D08F8015C020318DF
:102CD0006C2E5C08F700782EF7010830DE00DC0D62
:102CE000F70D5D0877020318F700F80DDE0B6F2E65
:102CF00077085407F8007808D3000130D40078082A
:102D0000D5000A128A1500200A168A11D301530829
:102D1000DC000A30DD005D08F8015C020318932E28
:102D20005C08F7009F2EF7010830DE00DC0DF70D80
:102D30005D0877020318F700F80DDE0B962E780E6B
:102D4000D400F030D4055308DC000A30DD005D0803
:102D5000F8015C020318AF2E5C08F700BB2EF701E8
:102D60000830DE00DC0DF70D5D0877020318F70070
:102D7000F80DDE0BB22E77085407F8007808D30060
:102D8000D4017808D5000A128A1500200A168A1183
:102D90000C30D300FA30E5000A1283210A16D30B57
:102DA000CA2E0A30D7000A12DD250A160A30D700CB
:102DB0000A12DD250A162D10AC01423003178D00D2
:102DC00001308F000A12031362230A16C22F433008
:102DD00003178D0001308F000A12031362230A16B5
:102DE0000A1257260A162D1CC22F0A30D7000A12C3
:102DF000DD250A160A30D7000A12DD250A164730EB
:102E000003178D0001308F000A12031362230A1684
:102E10000630E5000130E6000A122C230A160130C4
:102E2000E900EA010A1297210A16BE103E0883162D
:102E30008700831287140830D300FA30E5000A12A5
:102E400083210A16D30B1D2FBE103E088316870060
:102E5000831287100C30D300FA30E5000A12832168
:102E60000A16D30B2C2F0630E5000130E6000A12BB
:102E70002C230A160130E900EA000A1297210A16EB
:102E8000BE103E0883168700831287140830D300D3
:102E9000FA30E5000A1283210A16D30B482FBE1020
:102EA0003E0883168700831287100C30D300FA3057
:102EB000E5000A1283210A16D30B572F0630E500CE
:102EC0000130E6000A122C230A160130E900053011
:102ED000EA000A1297210A16BE113E0883168700DF
:102EE000831287150830D300FA30E5000A128321D7
:102EF0000A16D30B742FBE113E0883168700831267
:102F000087110C30D300FA30E5000A1283210A162B
:102F1000D30B832F0630E5000130E6000A122C2384
:102F20000A160130E9000730EA000A1297210A1652
:102F300083160810831208140830D300FA30E50015
:102F40000A1283210A16D30B9E2F831608108312B0
:102F500008100C30D300FA30E5000A1283210A165B
:102F6000D30BAB2F2D10AC010A30D7000A12DD2590
:102F70000A164B3003178D0001308F000A1203131D
:102F800062230A168A150A16682A0A148A140A1570
:102F900082072F2850285329D629592A7D2B9F2C68
:102FA000E72E1030D700F701FA01D40CD30C031C24
:102FB000DF2F5508F7070318FA0A5608FA07FA0C24
:0C2FC000F70CF90CF80CD70BD52F08000B
:103000000C30E4000A128A113E230A168A15071DA5
:1030100019280130E500E6000A128A112C230A164D
:103020008A150130E900EA000A128A1197210A166E
:103030008A15871C2C280230E5000130E6000A12B0
:103040008A112C230A168A150130E900EA010A12B6
:103050008A1197210A168A15871D40280330E5003A
:103060000130E6000A128A112C230A168A15013053
:10307000E9000530EA000A128A1197210A168A151A
:10308000081C54280430E5000130E6000A128A11B9
:103090002C230A168A150130E9000730EA000A12CB
:1030A0008A1197210A168A15B5080319B12839081B
:1030B000D6003808D5003708D4003608D3005608A3
:1030C000DA005508D9005408D8005308D700DE01AB
:1030D000DD015E30DC008530DB000A12B6250A1601
:1030E00003199D280130E5000230E6000A128A111A
:1030F0002C230A168A150130E9000430EA000A126E
:103100008A1197210A168A15023084005608DA00BF
:103110005508D9005408D8005308D7000130DB0007
:103120000A12F52D0A160130E9000230EA000A12EF
:103130008A1197210A168A15B1280130E50002305C
:10314000E6000A128A112C230A168A15A3300317E7
:103150008D0000308F000A128A11031362230A16B1
:103160008A15B5080319FA28DA01D9016830D800A0
:103170008330D7003908DE003808DD003708DC006E
:103180003608DB000A12B6250A160318C928031DE3
:10319000DB280530E5000130E6000A128A112C23F5
:1031A0000A168A150130E9000330EA000A128A1172
:1031B00097210A168A15DA01D9016830D8008330C0
:1031C000D7003908DE003808DD003708DC00360893
:1031D000DB000A12B6250A160318F028031DFA2888
:1031E000AE08031DFA28F430D7000A128A11DD2533
:1031F0000A168A150830E5000230E6000A128A1124
:103200002C230A168A150130E9000630EA000A125A
:103210008A1197210A168A153008D6000130D70086
:103220000A128A11D3260A168A153A30E4000A12C5
:103230008A113E230A168A152F08D6000130D700BE
:103240000A128A11D3260A168A153A30E4000A12A5
:103250008A113E230A168A152E08D6000130D7009F
:103260000A128A11D3260A168A158A150A16D72A2F
:1032700003081F3983000330AB00AC012D10B301EC
:10328000B401B501FF30BE00C901C8010430CA0055
:1032900083161F149F141F159F1107309C00831362
:1032A0008312AD10BF01C001C101C201C301C4013D
:1032B000C501C601C701CC01CB01CE01CD01BE10B5
:1032C0003E0883168700831287143E113E0883163A
:1032D00087008312071583160811831208156430BE
:1032E000E5000A128A1183210A168A150F30F700A9
:1032F00081018130840083130008F0390738800091
:1033000064000008F739F719F03977048000831654
:103310000108C03907388100831281018B16C03043
:103320008B0483161F109F141F119F111F178312E8
:103330001F139F1783169F1783121F140430D30087
:10334000AF30E5000A128A1183210A168A15D30BC1
:10335000A0290A128A11832A0A168A150430D3007A
:10336000AF30E5000A128A1183210A168A15D30BA1
:10337000B0290A128A11132B0A168A150230D300BB
:103380009630E5000A128A1183210A168A15D30B9A
:10339000C029513003178D0001308F000A128A11A5
:1033A000031362230A168A150430D300E130E500C6
:1033B0000A128A1183210A168A15D30BD6290317FC
:1033C0008D0183168C130C1483120C08FF3C031D13
:1033D000042A5C308D0001308F000A128A11031319
:1033E00062230A168A150A128A11B82B0A168A1540
:1033F0000430D300E130E5000A128A1183210A1655
:103400008A15D30BFA2903170313B5010A128A117F
:10341000D8250A168A15F8080319172AB50A0A12B8
:103420008A1185240A168A15F808031D0E2AB50884
:103430000319262A6C3003178D0001308F000A1201
:103440008A11031362230A168A15312A7930031769
:103450008D0001308F000A128A11031362230A16AD
:103460008A150430D300FA30E5000A128A1183214C
:103470000A168A15D30B332A0C30E4000A128A117B
:103480003E230A168A15013003178D0083168C130C
:103490000C1483120C080313B100033003178D00C2
:1034A00083168C130C1483120C080313B2000A1237
:1034B0008A11EC250A168A157808AB002B08033C04
:1034C0000319742A83160811831208158A1100281B
:1034D0008A150230D3009630E5000A128A11832142
:1034E0000A168A15D30B6B2A0A124B290A16323098
:1034F000E5000A128A1183210A168A15B5080319F4
:10350000A32A0A128A11D8250A168A15F80803195F
:10351000A32A0A12A7290A167A08B9007908B8005E
:103520007808B7007708B6000A128A1185240A16AF
:103530008A15F808031D892A3230E5000A128A111B
:1035400083210A168A1503178D0183168C130C1418
:1035500083120C080313D401D3000A128A11E22744
:103560000A168A157A08BD007908BC007808BB00E5
:103570007708BA003D08DA003C08D9003B08D800BB
:103580003A08D700DE01DD017F30DC008630DB0049
:103590000A12B6250A16031DD32ABD01BC01483004
:1035A000BB008330BA00AC08031D2D2C0028300866
:1035B000113C031CDF2A3008073C031CE42A831655
:1035C000081183120815E82A8316081183120811BE
:1035D0003908DA003808D9003708D8003608D7008B
:1035E000DE01DD011630DC008630DB000A12B62574
:1035F0000A16031C352BB5080319352B3908DA00D8
:103600003808D9003708D8003608D7003D08DE0052
:103610003C08DD003B08DC003A08DB000A12B62556
:103620000A16031C192B3E113E08831687008312CD
:1036300007153D08DA003C08D9003B08D8003A08D5
:10364000D7003908DE003808DD003708DC0036080E
:10365000DB000A12B6250A16031C342B3E113E0865
:1036600083168700831207113B2B3E113E088316F9
:1036700087008312071131083002031C4A2B3208DD
:10368000300203184A2BBE103E08831687008312AF
:103690008714502BBE103E088316870083128710B4
:1036A000053003178D0083168C130C1483120C083D
:1036B0000319D62B05308D0083168C130C1483123E
:1036C0000C080313D30034083002530203196A2B89
:1036D0000318D52BBE113E08831687008312871569
:1036E000CD08031D972BCE08031D972BD40130085E
:1036F000D3000E30D6001030D5008A11D1278A159C
:103700007908D4007808D3002F08D7003C30D800BF
:103710000A1226210A167808D3070318D40A2E089D
:103720005307CD005408CE000318CE0AD52BD40180
:103730003008D3000E30D6001030D5008A11D127C2
:103740008A157908D4007808D3002F08D7003C30B8
:10375000D8000A1226210A167808D3070318D40ABB
:103760002E08D3070318D40A4D085302CF0054087B
:10377000D0004E08031C4E0FD002063003178D00F8
:1037800083168C130C1483120C0803134F020319B5
:10379000D52B031CD52BBE113E0883168700831240
:1037A0008711CE01CD013008B400031707308D001A
:1037B00083168C130C1483120C0803192E2C07305B
:1037C0008D0083168C130C1483120C080313D30082
:1037D0003308300253020319EF2B03182D2C8316E4
:1037E000081083120814CB08031D052CCC08031DF8
:1037F000052C3008D7003C30D8000A1226210A16C2
:103800002F087807CB00CC012D2C3008D7003C3096
:10381000D8000A1226210A162F087807F8004B084C
:103820007802D100D2014C08031C4C0FD2020830A0
:1038300003178D0083168C130C1483120C080313CA
:10384000510203192D2C031C2D2C831608108312F2
:103850000810CC01CB013008B30003170313572A1B
:02386000630003
:02400E00363F3B
:00000001FF
;PIC16F877A
;CRC=E23B  CREATED="29-mar-21 08:37"
